{
  "_format": "hh-sol-artifact-1",
  "contractName": "FiatCollateral",
  "sourceName": "protocol/contracts/plugins/assets/FiatCollateral.sol",
  "abi": [
    {
      "inputs": [
        {
          "components": [
            {
              "internalType": "uint48",
              "name": "priceTimeout",
              "type": "uint48"
            },
            {
              "internalType": "contract AggregatorV3Interface",
              "name": "chainlinkFeed",
              "type": "address"
            },
            {
              "internalType": "uint192",
              "name": "oracleError",
              "type": "uint192"
            },
            {
              "internalType": "contract IERC20Metadata",
              "name": "erc20",
              "type": "address"
            },
            {
              "internalType": "uint192",
              "name": "maxTradeVolume",
              "type": "uint192"
            },
            {
              "internalType": "uint48",
              "name": "oracleTimeout",
              "type": "uint48"
            },
            {
              "internalType": "bytes32",
              "name": "targetName",
              "type": "bytes32"
            },
            {
              "internalType": "uint192",
              "name": "defaultThreshold",
              "type": "uint192"
            },
            {
              "internalType": "uint48",
              "name": "delayUntilDefault",
              "type": "uint48"
            }
          ],
          "internalType": "struct CollateralConfig",
          "name": "config",
          "type": "tuple"
        }
      ],
      "stateMutability": "nonpayable",
      "type": "constructor"
    },
    {
      "inputs": [],
      "name": "StalePrice",
      "type": "error"
    },
    {
      "inputs": [],
      "name": "UIntOutOfBounds",
      "type": "error"
    },
    {
      "anonymous": false,
      "inputs": [
        {
          "indexed": true,
          "internalType": "enum CollateralStatus",
          "name": "oldStatus",
          "type": "uint8"
        },
        {
          "indexed": true,
          "internalType": "enum CollateralStatus",
          "name": "newStatus",
          "type": "uint8"
        }
      ],
      "name": "CollateralStatusChanged",
      "type": "event"
    },
    {
      "anonymous": false,
      "inputs": [
        {
          "indexed": true,
          "internalType": "contract IERC20",
          "name": "erc20",
          "type": "address"
        },
        {
          "indexed": true,
          "internalType": "uint256",
          "name": "amount",
          "type": "uint256"
        }
      ],
      "name": "RewardsClaimed",
      "type": "event"
    },
    {
      "inputs": [
        {
          "internalType": "address",
          "name": "account",
          "type": "address"
        }
      ],
      "name": "bal",
      "outputs": [
        {
          "internalType": "uint192",
          "name": "",
          "type": "uint192"
        }
      ],
      "stateMutability": "view",
      "type": "function"
    },
    {
      "inputs": [],
      "name": "chainlinkFeed",
      "outputs": [
        {
          "internalType": "contract AggregatorV3Interface",
          "name": "",
          "type": "address"
        }
      ],
      "stateMutability": "view",
      "type": "function"
    },
    {
      "inputs": [],
      "name": "claimRewards",
      "outputs": [],
      "stateMutability": "nonpayable",
      "type": "function"
    },
    {
      "inputs": [],
      "name": "delayUntilDefault",
      "outputs": [
        {
          "internalType": "uint48",
          "name": "",
          "type": "uint48"
        }
      ],
      "stateMutability": "view",
      "type": "function"
    },
    {
      "inputs": [],
      "name": "erc20",
      "outputs": [
        {
          "internalType": "contract IERC20Metadata",
          "name": "",
          "type": "address"
        }
      ],
      "stateMutability": "view",
      "type": "function"
    },
    {
      "inputs": [],
      "name": "erc20Decimals",
      "outputs": [
        {
          "internalType": "uint8",
          "name": "",
          "type": "uint8"
        }
      ],
      "stateMutability": "view",
      "type": "function"
    },
    {
      "inputs": [],
      "name": "isCollateral",
      "outputs": [
        {
          "internalType": "bool",
          "name": "",
          "type": "bool"
        }
      ],
      "stateMutability": "pure",
      "type": "function"
    },
    {
      "inputs": [],
      "name": "lastSave",
      "outputs": [
        {
          "internalType": "uint48",
          "name": "",
          "type": "uint48"
        }
      ],
      "stateMutability": "view",
      "type": "function"
    },
    {
      "inputs": [],
      "name": "lotPrice",
      "outputs": [
        {
          "internalType": "uint192",
          "name": "lotLow",
          "type": "uint192"
        },
        {
          "internalType": "uint192",
          "name": "lotHigh",
          "type": "uint192"
        }
      ],
      "stateMutability": "view",
      "type": "function"
    },
    {
      "inputs": [],
      "name": "maxTradeVolume",
      "outputs": [
        {
          "internalType": "uint192",
          "name": "",
          "type": "uint192"
        }
      ],
      "stateMutability": "view",
      "type": "function"
    },
    {
      "inputs": [],
      "name": "oracleError",
      "outputs": [
        {
          "internalType": "uint192",
          "name": "",
          "type": "uint192"
        }
      ],
      "stateMutability": "view",
      "type": "function"
    },
    {
      "inputs": [],
      "name": "oracleTimeout",
      "outputs": [
        {
          "internalType": "uint48",
          "name": "",
          "type": "uint48"
        }
      ],
      "stateMutability": "view",
      "type": "function"
    },
    {
      "inputs": [],
      "name": "pegBottom",
      "outputs": [
        {
          "internalType": "uint192",
          "name": "",
          "type": "uint192"
        }
      ],
      "stateMutability": "view",
      "type": "function"
    },
    {
      "inputs": [],
      "name": "pegTop",
      "outputs": [
        {
          "internalType": "uint192",
          "name": "",
          "type": "uint192"
        }
      ],
      "stateMutability": "view",
      "type": "function"
    },
    {
      "inputs": [],
      "name": "price",
      "outputs": [
        {
          "internalType": "uint192",
          "name": "",
          "type": "uint192"
        },
        {
          "internalType": "uint192",
          "name": "",
          "type": "uint192"
        }
      ],
      "stateMutability": "view",
      "type": "function"
    },
    {
      "inputs": [],
      "name": "priceTimeout",
      "outputs": [
        {
          "internalType": "uint48",
          "name": "",
          "type": "uint48"
        }
      ],
      "stateMutability": "view",
      "type": "function"
    },
    {
      "inputs": [],
      "name": "refPerTok",
      "outputs": [
        {
          "internalType": "uint192",
          "name": "",
          "type": "uint192"
        }
      ],
      "stateMutability": "view",
      "type": "function"
    },
    {
      "inputs": [],
      "name": "refresh",
      "outputs": [],
      "stateMutability": "nonpayable",
      "type": "function"
    },
    {
      "inputs": [],
      "name": "savedHighPrice",
      "outputs": [
        {
          "internalType": "uint192",
          "name": "",
          "type": "uint192"
        }
      ],
      "stateMutability": "view",
      "type": "function"
    },
    {
      "inputs": [],
      "name": "savedLowPrice",
      "outputs": [
        {
          "internalType": "uint192",
          "name": "",
          "type": "uint192"
        }
      ],
      "stateMutability": "view",
      "type": "function"
    },
    {
      "inputs": [],
      "name": "status",
      "outputs": [
        {
          "internalType": "enum CollateralStatus",
          "name": "",
          "type": "uint8"
        }
      ],
      "stateMutability": "view",
      "type": "function"
    },
    {
      "inputs": [],
      "name": "targetName",
      "outputs": [
        {
          "internalType": "bytes32",
          "name": "",
          "type": "bytes32"
        }
      ],
      "stateMutability": "view",
      "type": "function"
    },
    {
      "inputs": [],
      "name": "targetPerRef",
      "outputs": [
        {
          "internalType": "uint192",
          "name": "",
          "type": "uint192"
        }
      ],
      "stateMutability": "view",
      "type": "function"
    },
    {
      "inputs": [],
      "name": "tryPrice",
      "outputs": [
        {
          "internalType": "uint192",
          "name": "low",
          "type": "uint192"
        },
        {
          "internalType": "uint192",
          "name": "high",
          "type": "uint192"
        },
        {
          "internalType": "uint192",
          "name": "pegPrice",
          "type": "uint192"
        }
      ],
      "stateMutability": "view",
      "type": "function"
    },
    {
      "inputs": [],
      "name": "whenDefault",
      "outputs": [
        {
          "internalType": "uint256",
          "name": "",
          "type": "uint256"
        }
      ],
      "stateMutability": "view",
      "type": "function"
    }
  ],
  "bytecode": "0x6101e060405265ffffffffffff600260006101000a81548165ffffffffffff021916908365ffffffffffff1602179055503480156200003d57600080fd5b50604051620037e8380380620037e8833981810160405281019062000063919062000c2d565b806000015181602001518260400151836060015184608001518560a0015160008665ffffffffffff1611620000cf576040517f08c379a0000000000000000000000000000000000000000000000000000000008152600401620000c69062000cc1565b60405180910390fd5b600073ffffffffffffffffffffffffffffffffffffffff168573ffffffffffffffffffffffffffffffffffffffff160362000141576040517f08c379a0000000000000000000000000000000000000000000000000000000008152600401620001389062000d33565b60405180910390fd5b60008477ffffffffffffffffffffffffffffffffffffffffffffffff16118015620001b15750670de0b6b3a764000067ffffffffffffffff1677ffffffffffffffffffffffffffffffffffffffffffffffff168477ffffffffffffffffffffffffffffffffffffffffffffffff16105b620001f3576040517f08c379a0000000000000000000000000000000000000000000000000000000008152600401620001ea9062000da5565b60405180910390fd5b600073ffffffffffffffffffffffffffffffffffffffff168373ffffffffffffffffffffffffffffffffffffffff160362000265576040517f08c379a00000000000000000000000000000000000000000000000000000000081526004016200025c9062000e17565b60405180910390fd5b60008277ffffffffffffffffffffffffffffffffffffffffffffffff1611620002c5576040517f08c379a0000000000000000000000000000000000000000000000000000000008152600401620002bc9062000e89565b60405180910390fd5b60008165ffffffffffff161162000313576040517f08c379a00000000000000000000000000000000000000000000000000000000081526004016200030a9062000efb565b60405180910390fd5b8565ffffffffffff166101408165ffffffffffff16815250508473ffffffffffffffffffffffffffffffffffffffff1660808173ffffffffffffffffffffffffffffffffffffffff16815250508377ffffffffffffffffffffffffffffffffffffffffffffffff166101208177ffffffffffffffffffffffffffffffffffffffffffffffff16815250508273ffffffffffffffffffffffffffffffffffffffff1660a08173ffffffffffffffffffffffffffffffffffffffff168152505060a05173ffffffffffffffffffffffffffffffffffffffff1663313ce5676040518163ffffffff1660e01b8152600401602060405180830381865afa1580156200041f573d6000803e3d6000fd5b505050506040513d601f19601f8201168201806040525081019062000445919062000f5b565b60ff1660c08160ff16815250508177ffffffffffffffffffffffffffffffffffffffffffffffff1660e08177ffffffffffffffffffffffffffffffffffffffffffffffff16815250508065ffffffffffff166101008165ffffffffffff16815250505050505050506000801b8160c0015103620004f9576040517f08c379a0000000000000000000000000000000000000000000000000000000008152600401620004f09062000fdd565b60405180910390fd5b60008160e0015177ffffffffffffffffffffffffffffffffffffffffffffffff1611156200057557600081610100015165ffffffffffff161162000574576040517f08c379a00000000000000000000000000000000000000000000000000000000081526004016200056b906200104f565b60405180910390fd5b5b6212750081610100015165ffffffffffff161115620005cb576040517f08c379a0000000000000000000000000000000000000000000000000000000008152600401620005c290620010c1565b60405180910390fd5b8060c00151610180818152505080610100015165ffffffffffff166101608165ffffffffffff1681525050600062000608620006e360201b60201c565b90506000620006448360e001518377ffffffffffffffffffffffffffffffffffffffffffffffff16620006fd60201b620010021790919060201c565b9050808262000654919062001112565b77ffffffffffffffffffffffffffffffffffffffffffffffff166101a08177ffffffffffffffffffffffffffffffffffffffffffffffff168152505080826200069e919062001165565b77ffffffffffffffffffffffffffffffffffffffffffffffff166101c08177ffffffffffffffffffffffffffffffffffffffffffffffff168152505050505062001363565b6000670de0b6b3a764000067ffffffffffffffff16905090565b600062000713838360016200071b60201b60201c565b905092915050565b600062000793620007878477ffffffffffffffffffffffffffffffffffffffffffffffff168677ffffffffffffffffffffffffffffffffffffffffffffffff16620007679190620011c2565b670de0b6b3a764000067ffffffffffffffff16856200079c60201b60201c565b6200089d60201b60201c565b90509392505050565b6000808385620007ad91906200123c565b905060006002811115620007c657620007c562001274565b5b836002811115620007dc57620007db62001274565b5b03620007ec578091505062000896565b6001600281111562000803576200080262001274565b5b83600281111562000819576200081862001274565b5b0362000868576002600185620008309190620012a3565b6200083c91906200123c565b84866200084a9190620012de565b1115620008625780806200085e9062001316565b9150505b62000891565b60008486620008789190620012de565b1115620008905780806200088c9062001316565b9150505b5b809150505b9392505050565b60008177ffffffffffffffffffffffffffffffffffffffffffffffff80161015620008f4576040517ff44398f500000000000000000000000000000000000000000000000000000000815260040160405180910390fd5b819050919050565b6000604051905090565b600080fd5b600080fd5b6000601f19601f8301169050919050565b7f4e487b7100000000000000000000000000000000000000000000000000000000600052604160045260246000fd5b6200095b8262000910565b810181811067ffffffffffffffff821117156200097d576200097c62000921565b5b80604052505050565b600062000992620008fc565b9050620009a0828262000950565b919050565b600065ffffffffffff82169050919050565b620009c281620009a5565b8114620009ce57600080fd5b50565b600081519050620009e281620009b7565b92915050565b600073ffffffffffffffffffffffffffffffffffffffff82169050919050565b600062000a1582620009e8565b9050919050565b600062000a298262000a08565b9050919050565b62000a3b8162000a1c565b811462000a4757600080fd5b50565b60008151905062000a5b8162000a30565b92915050565b600077ffffffffffffffffffffffffffffffffffffffffffffffff82169050919050565b62000a908162000a61565b811462000a9c57600080fd5b50565b60008151905062000ab08162000a85565b92915050565b600062000ac38262000a08565b9050919050565b62000ad58162000ab6565b811462000ae157600080fd5b50565b60008151905062000af58162000aca565b92915050565b6000819050919050565b62000b108162000afb565b811462000b1c57600080fd5b50565b60008151905062000b308162000b05565b92915050565b6000610120828403121562000b505762000b4f6200090b565b5b62000b5d61012062000986565b9050600062000b6f84828501620009d1565b600083015250602062000b858482850162000a4a565b602083015250604062000b9b8482850162000a9f565b604083015250606062000bb18482850162000ae4565b606083015250608062000bc78482850162000a9f565b60808301525060a062000bdd84828501620009d1565b60a08301525060c062000bf38482850162000b1f565b60c08301525060e062000c098482850162000a9f565b60e08301525061010062000c2084828501620009d1565b6101008301525092915050565b6000610120828403121562000c475762000c4662000906565b5b600062000c578482850162000b36565b91505092915050565b600082825260208201905092915050565b7f70726963652074696d656f7574207a65726f0000000000000000000000000000600082015250565b600062000ca960128362000c60565b915062000cb68262000c71565b602082019050919050565b6000602082019050818103600083015262000cdc8162000c9a565b9050919050565b7f6d697373696e6720636861696e6c696e6b206665656400000000000000000000600082015250565b600062000d1b60168362000c60565b915062000d288262000ce3565b602082019050919050565b6000602082019050818103600083015262000d4e8162000d0c565b9050919050565b7f6f7261636c65206572726f72206f7574206f662072616e676500000000000000600082015250565b600062000d8d60198362000c60565b915062000d9a8262000d55565b602082019050919050565b6000602082019050818103600083015262000dc08162000d7e565b9050919050565b7f6d697373696e6720657263323000000000000000000000000000000000000000600082015250565b600062000dff600d8362000c60565b915062000e0c8262000dc7565b602082019050919050565b6000602082019050818103600083015262000e328162000df0565b9050919050565b7f696e76616c6964206d617820747261646520766f6c756d650000000000000000600082015250565b600062000e7160188362000c60565b915062000e7e8262000e39565b602082019050919050565b6000602082019050818103600083015262000ea48162000e62565b9050919050565b7f6f7261636c6554696d656f7574207a65726f0000000000000000000000000000600082015250565b600062000ee360128362000c60565b915062000ef08262000eab565b602082019050919050565b6000602082019050818103600083015262000f168162000ed4565b9050919050565b600060ff82169050919050565b62000f358162000f1d565b811462000f4157600080fd5b50565b60008151905062000f558162000f2a565b92915050565b60006020828403121562000f745762000f7362000906565b5b600062000f848482850162000f44565b91505092915050565b7f7461726765744e616d65206d697373696e670000000000000000000000000000600082015250565b600062000fc560128362000c60565b915062000fd28262000f8d565b602082019050919050565b6000602082019050818103600083015262000ff88162000fb6565b9050919050565b7f64656c6179556e74696c44656661756c74207a65726f00000000000000000000600082015250565b60006200103760168362000c60565b9150620010448262000fff565b602082019050919050565b600060208201905081810360008301526200106a8162001028565b9050919050565b7f64656c6179556e74696c44656661756c7420746f6f206c6f6e67000000000000600082015250565b6000620010a9601a8362000c60565b9150620010b68262001071565b602082019050919050565b60006020820190508181036000830152620010dc816200109a565b9050919050565b7f4e487b7100000000000000000000000000000000000000000000000000000000600052601160045260246000fd5b60006200111f8262000a61565b91506200112c8362000a61565b9250828203905077ffffffffffffffffffffffffffffffffffffffffffffffff8111156200115f576200115e620010e3565b5b92915050565b6000620011728262000a61565b91506200117f8362000a61565b9250828201905077ffffffffffffffffffffffffffffffffffffffffffffffff811115620011b257620011b1620010e3565b5b92915050565b6000819050919050565b6000620011cf82620011b8565b9150620011dc83620011b8565b9250828202620011ec81620011b8565b91508282048414831517620012065762001205620010e3565b5b5092915050565b7f4e487b7100000000000000000000000000000000000000000000000000000000600052601260045260246000fd5b60006200124982620011b8565b91506200125683620011b8565b9250826200126957620012686200120d565b5b828204905092915050565b7f4e487b7100000000000000000000000000000000000000000000000000000000600052602160045260246000fd5b6000620012b082620011b8565b9150620012bd83620011b8565b9250828203905081811115620012d857620012d7620010e3565b5b92915050565b6000620012eb82620011b8565b9150620012f883620011b8565b9250826200130b576200130a6200120d565b5b828206905092915050565b60006200132382620011b8565b91507fffffffffffffffffffffffffffffffffffffffffffffffffffffffffffffffff8203620013585762001357620010e3565b5b600182019050919050565b60805160a05160c05160e05161010051610120516101405161016051610180516101a0516101c0516123b16200143760003960008181610b820152610eb1015260008181610ba60152610e5401526000610fe0015260008181610c390152611368015260008181610594015281816105df0152818161061201526107460152600081816109220152610bca0152600081816108b50152610b5e015260006109b701526000818161079001526108530152600081816107b901526108890152600081816108d6015261099301526123b16000f3fe608060405234801561001057600080fd5b50600436106101735760003560e01c80639ec07272116100de578063c55f29d111610097578063ddc0c7c811610071578063ddc0c7c8146103f0578063e6a150531461040e578063f8ac93e81461042c578063fdfd59171461043657610173565b8063c55f29d114610396578063c59b3d63146103b4578063d9e8e670146103d257610173565b80639ec07272146102e1578063a035b1fe146102ff578063a7fa0faf1461031e578063abfeece51461033c578063ae4e18751461035a578063b94d87391461037857610173565b80635580f72a116101305780635580f72a14610219578063785e9e86146102495780637d1ea137146102675780637dbdf1f51461028757806395acc4ae146102a557806396f80ae9146102c357610173565b8063200d2ed214610178578063271181ec146101965780632bcfaa80146101b55780632dc86624146101d3578063372500ab146101f15780633cb5d379146101fb575b600080fd5b610180610454565b60405161018d91906118e6565b60405180910390f35b61019e6104bf565b6040516101ac929190611934565b60405180910390f35b6101bd610744565b6040516101ca919061197e565b60405180910390f35b6101db610768565b6040516101e891906119b2565b60405180910390f35b6101f961078c565b005b61020361078e565b60405161021091906119e9565b60405180910390f35b610233600480360381019061022e9190611a67565b6107b2565b6040516102409190611a94565b60405180910390f35b610251610887565b60405161025e9190611b0e565b60405180910390f35b61026f6108ab565b60405161027e93929190611b29565b60405180910390f35b61028f610991565b60405161029c9190611b81565b60405180910390f35b6102ad6109b5565b6040516102ba9190611a94565b60405180910390f35b6102cb6109d9565b6040516102d8919061197e565b60405180910390f35b6102e96109f1565b6040516102f69190611a94565b60405180910390f35b610307610a1b565b604051610315929190611934565b60405180910390f35b610326610b42565b6040516103339190611a94565b60405180910390f35b610344610b5c565b604051610351919061197e565b60405180910390f35b610362610b80565b60405161036f9190611a94565b60405180910390f35b610380610ba4565b60405161038d9190611a94565b60405180910390f35b61039e610bc8565b6040516103ab9190611a94565b60405180910390f35b6103bc610bec565b6040516103c99190611bb7565b60405180910390f35b6103da610bf5565b6040516103e79190611a94565b60405180910390f35b6103f8610c0f565b6040516104059190611a94565b60405180910390f35b610416610c37565b604051610423919061197e565b60405180910390f35b610434610c5b565b005b61043e610fde565b60405161044b9190611beb565b60405180910390f35b600065ffffffffffff8016600260009054906101000a900465ffffffffffff1665ffffffffffff160361048a57600090506104bc565b42600260009054906101000a900465ffffffffffff1665ffffffffffff1611156104b757600190506104bc565b600290505b90565b6000803073ffffffffffffffffffffffffffffffffffffffff16637d1ea1376040518163ffffffff1660e01b8152600401606060405180830381865afa92505050801561052a57506040513d601f19601f820116820180604052508101906105279190611c32565b60015b6106f0573d806000811461055a576040519150601f19603f3d011682016040523d82523d6000602084013e61055f565b606091505b50600081510361056e57600080fd5b6000600160189054906101000a900465ffffffffffff16426105909190611cb4565b90507f000000000000000000000000000000000000000000000000000000000000000065ffffffffffff168165ffffffffffff16106105d757600080935093505050610740565b600061063e827f00000000000000000000000000000000000000000000000000000000000000006106089190611cb4565b65ffffffffffff167f000000000000000000000000000000000000000000000000000000000000000065ffffffffffff16611018565b90506106918160008054906101000a900477ffffffffffffffffffffffffffffffffffffffffffffffff1677ffffffffffffffffffffffffffffffffffffffffffffffff1661100290919063ffffffff16565b94506106e681600160009054906101000a900477ffffffffffffffffffffffffffffffffffffffffffffffff1677ffffffffffffffffffffffffffffffffffffffffffffffff1661100290919063ffffffff16565b93505050506106fa565b8294508193505050505b8077ffffffffffffffffffffffffffffffffffffffffffffffff168277ffffffffffffffffffffffffffffffffffffffffffffffff16111561073f5761073e611cee565b5b5b9091565b7f000000000000000000000000000000000000000000000000000000000000000081565b6000600260009054906101000a900465ffffffffffff1665ffffffffffff16905090565b565b7f000000000000000000000000000000000000000000000000000000000000000081565b60006108807f000000000000000000000000000000000000000000000000000000000000000073ffffffffffffffffffffffffffffffffffffffff166370a08231846040518263ffffffff1660e01b81526004016108109190611d2c565b602060405180830381865afa15801561082d573d6000803e3d6000fd5b505050506040513d601f19601f820116820180604052508101906108519190611d73565b7f000000000000000000000000000000000000000000000000000000000000000061087b90611dad565b611047565b9050919050565b7f000000000000000000000000000000000000000000000000000000000000000081565b60008060006109197f00000000000000000000000000000000000000000000000000000000000000007f000000000000000000000000000000000000000000000000000000000000000073ffffffffffffffffffffffffffffffffffffffff1661105d90919063ffffffff16565b9050600061096d7f000000000000000000000000000000000000000000000000000000000000000060028477ffffffffffffffffffffffffffffffffffffffffffffffff166112229092919063ffffffff16565b9050808261097b9190611df5565b935080826109899190611e41565b925050909192565b7f000000000000000000000000000000000000000000000000000000000000000081565b7f000000000000000000000000000000000000000000000000000000000000000081565b600160189054906101000a900465ffffffffffff1681565b600160009054906101000a900477ffffffffffffffffffffffffffffffffffffffffffffffff1681565b6000803073ffffffffffffffffffffffffffffffffffffffff16637d1ea1376040518163ffffffff1660e01b8152600401606060405180830381865afa925050508015610a8657506040513d601f19601f82011682018060405250810190610a839190611c32565b60015b610aef573d8060008114610ab6576040519150601f19603f3d011682016040523d82523d6000602084013e610abb565b606091505b506000815103610aca57600080fd5b600077ffffffffffffffffffffffffffffffffffffffffffffffff9250925050610b3e565b8177ffffffffffffffffffffffffffffffffffffffffffffffff168377ffffffffffffffffffffffffffffffffffffffffffffffff161115610b3457610b33611cee565b5b8282945094505050505b9091565b6000670de0b6b3a764000067ffffffffffffffff16905090565b7f000000000000000000000000000000000000000000000000000000000000000081565b7f000000000000000000000000000000000000000000000000000000000000000081565b7f000000000000000000000000000000000000000000000000000000000000000081565b7f000000000000000000000000000000000000000000000000000000000000000081565b60006001905090565b6000670de0b6b3a764000067ffffffffffffffff16905090565b60008054906101000a900477ffffffffffffffffffffffffffffffffffffffffffffffff1681565b7f000000000000000000000000000000000000000000000000000000000000000081565b610c63611291565b610fdc576000610c71610454565b90503073ffffffffffffffffffffffffffffffffffffffff16637d1ea1376040518163ffffffff1660e01b8152600401606060405180830381865afa925050508015610cdb57506040513d601f19601f82011682018060405250810190610cd89190611c32565b60015b610d2f573d8060008114610d0b576040519150601f19603f3d011682016040523d82523d6000602084013e610d10565b606091505b506000815103610d1f57600080fd5b610d2960016112b8565b50610f4f565b77ffffffffffffffffffffffffffffffffffffffffffffffff80168277ffffffffffffffffffffffffffffffffffffffffffffffff161015610e2657826000806101000a81548177ffffffffffffffffffffffffffffffffffffffffffffffff021916908377ffffffffffffffffffffffffffffffffffffffffffffffff16021790555081600160006101000a81548177ffffffffffffffffffffffffffffffffffffffffffffffff021916908377ffffffffffffffffffffffffffffffffffffffffffffffff16021790555042600160186101000a81548165ffffffffffff021916908365ffffffffffff160217905550610e52565b60008377ffffffffffffffffffffffffffffffffffffffffffffffff1614610e5157610e50611cee565b5b5b7f000000000000000000000000000000000000000000000000000000000000000077ffffffffffffffffffffffffffffffffffffffffffffffff168177ffffffffffffffffffffffffffffffffffffffffffffffff161080610f0757507f000000000000000000000000000000000000000000000000000000000000000077ffffffffffffffffffffffffffffffffffffffffffffffff168177ffffffffffffffffffffffffffffffffffffffffffffffff16115b80610f2c575060008377ffffffffffffffffffffffffffffffffffffffffffffffff16145b15610f4057610f3b60016112b8565b610f4b565b610f4a60006112b8565b5b5050505b6000610f59610454565b9050806002811115610f6e57610f6d61186f565b5b826002811115610f8157610f8061186f565b5b14610fd957806002811115610f9957610f9861186f565b5b826002811115610fac57610fab61186f565b5b7f99cada7141db4d51b602b2e469ec310c78ffbba0eb05bc3e3e633f30672dea0260405160405180910390a35b50505b565b7f000000000000000000000000000000000000000000000000000000000000000081565b600061101083836001611222565b905092915050565b600061103f61103a670de0b6b3a764000067ffffffffffffffff168585611483565b6115ad565b905092915050565b60006110558383600061160b565b905092915050565b60008060008060008673ffffffffffffffffffffffffffffffffffffffff1663feaf968c6040518163ffffffff1660e01b815260040160a060405180830381865afa1580156110b0573d6000803e3d6000fd5b505050506040513d601f19601f820116820180604052508101906110d49190611f05565b945094505093509350600082148061110357508369ffffffffffffffffffff168169ffffffffffffffffffff16105b1561113a576040517f19abf40e00000000000000000000000000000000000000000000000000000000815260040160405180910390fd5b600082426111489190611f80565b90508665ffffffffffff168165ffffffffffff161115611194576040517f19abf40e00000000000000000000000000000000000000000000000000000000815260040160405180910390fd5b611215848973ffffffffffffffffffffffffffffffffffffffff1663313ce5676040518163ffffffff1660e01b8152600401602060405180830381865afa1580156111e3573d6000803e3d6000fd5b505050506040513d601f19601f820116820180604052508101906112079190611fe0565b61121090611dad565b611047565b9550505050505092915050565b60006112886112838477ffffffffffffffffffffffffffffffffffffffffffffffff168677ffffffffffffffffffffffffffffffffffffffffffffffff1661126a919061200d565b670de0b6b3a764000067ffffffffffffffff168561172f565b6115ad565b90509392505050565b600042600260009054906101000a900465ffffffffffff1665ffffffffffff161115905090565b42600260009054906101000a900465ffffffffffff1665ffffffffffff16111561148057600060028111156112f0576112ef61186f565b5b8160028111156113035761130261186f565b5b036113385765ffffffffffff600260006101000a81548165ffffffffffff021916908365ffffffffffff16021790555061147f565b6001600281111561134c5761134b61186f565b5b81600281111561135f5761135e61186f565b5b0361142c5760007f000000000000000000000000000000000000000000000000000000000000000065ffffffffffff164261139a919061204f565b905065ffffffffffff801681106113db5765ffffffffffff600260006101000a81548165ffffffffffff021916908365ffffffffffff160217905550611426565b600260009054906101000a900465ffffffffffff1665ffffffffffff168110156114255780600260006101000a81548165ffffffffffff021916908365ffffffffffff1602179055505b5b5061147e565b60028081111561143f5761143e61186f565b5b8160028111156114525761145161186f565b5b0361147d5742600260006101000a81548165ffffffffffff021916908365ffffffffffff1602179055505b5b5b5b50565b60008060006114928686611810565b915091508382106114cf576040517ff44398f500000000000000000000000000000000000000000000000000000000815260040160405180910390fd5b600084806114e0576114df612083565b5b8688099050818111156114f4576001830392505b80820391506000856000038616905080868161151357611512612083565b5b04955080838161152657611525612083565b5b049250600181826000038161153e5761153d612083565b5b04018402830192506000600190508087026002038102905080870260020381029050808702600203810290508087026002038102905080870260020381029050808702600203810290508087026002038102905080870260020381029050808402955050505050509392505050565b60008177ffffffffffffffffffffffffffffffffffffffffffffffff80161015611603576040517ff44398f500000000000000000000000000000000000000000000000000000000815260040160405180910390fd5b819050919050565b600080840361161d5760009050611728565b7fffffffffffffffffffffffffffffffffffffffffffffffffffffffffffffffa08360000b136116865760028081111561165a5761165961186f565b5b82600281111561166d5761166c61186f565b5b1461167957600061167c565b60015b60ff169050611728565b8260000b6028136116c3576040517ff44398f500000000000000000000000000000000000000000000000000000000815260040160405180910390fd5b6012836116d091906120b2565b925060006116e08460000b61184e565b600a6116ec919061223e565b90506000808560000b121561170b5761170686838661172f565b611718565b8186611717919061200d565b5b9050611723816115ad565b925050505b9392505050565b600080838561173e9190612289565b9050600060028111156117545761175361186f565b5b8360028111156117675761176661186f565b5b036117755780915050611809565b600160028111156117895761178861186f565b5b83600281111561179c5761179b61186f565b5b036117e05760026001856117b09190611f80565b6117ba9190612289565b84866117c691906122ba565b11156117db5780806117d7906122eb565b9150505b611804565b600084866117ee91906122ba565b11156118035780806117ff906122eb565b9150505b5b809150505b9392505050565b600080600060016000038061182857611827612083565b5b84860990508385029150818103925081811015611846576001830392505b509250929050565b600080821261185d5781611868565b8161186790612333565b5b9050919050565b7f4e487b7100000000000000000000000000000000000000000000000000000000600052602160045260246000fd5b600381106118af576118ae61186f565b5b50565b60008190506118c08261189e565b919050565b60006118d0826118b2565b9050919050565b6118e0816118c5565b82525050565b60006020820190506118fb60008301846118d7565b92915050565b600077ffffffffffffffffffffffffffffffffffffffffffffffff82169050919050565b61192e81611901565b82525050565b60006040820190506119496000830185611925565b6119566020830184611925565b9392505050565b600065ffffffffffff82169050919050565b6119788161195d565b82525050565b6000602082019050611993600083018461196f565b92915050565b6000819050919050565b6119ac81611999565b82525050565b60006020820190506119c760008301846119a3565b92915050565b600060ff82169050919050565b6119e3816119cd565b82525050565b60006020820190506119fe60008301846119da565b92915050565b600080fd5b600073ffffffffffffffffffffffffffffffffffffffff82169050919050565b6000611a3482611a09565b9050919050565b611a4481611a29565b8114611a4f57600080fd5b50565b600081359050611a6181611a3b565b92915050565b600060208284031215611a7d57611a7c611a04565b5b6000611a8b84828501611a52565b91505092915050565b6000602082019050611aa96000830184611925565b92915050565b6000819050919050565b6000611ad4611acf611aca84611a09565b611aaf565b611a09565b9050919050565b6000611ae682611ab9565b9050919050565b6000611af882611adb565b9050919050565b611b0881611aed565b82525050565b6000602082019050611b236000830184611aff565b92915050565b6000606082019050611b3e6000830186611925565b611b4b6020830185611925565b611b586040830184611925565b949350505050565b6000611b6b82611adb565b9050919050565b611b7b81611b60565b82525050565b6000602082019050611b966000830184611b72565b92915050565b60008115159050919050565b611bb181611b9c565b82525050565b6000602082019050611bcc6000830184611ba8565b92915050565b6000819050919050565b611be581611bd2565b82525050565b6000602082019050611c006000830184611bdc565b92915050565b611c0f81611901565b8114611c1a57600080fd5b50565b600081519050611c2c81611c06565b92915050565b600080600060608486031215611c4b57611c4a611a04565b5b6000611c5986828701611c1d565b9350506020611c6a86828701611c1d565b9250506040611c7b86828701611c1d565b9150509250925092565b7f4e487b7100000000000000000000000000000000000000000000000000000000600052601160045260246000fd5b6000611cbf8261195d565b9150611cca8361195d565b9250828203905065ffffffffffff811115611ce857611ce7611c85565b5b92915050565b7f4e487b7100000000000000000000000000000000000000000000000000000000600052600160045260246000fd5b611d2681611a29565b82525050565b6000602082019050611d416000830184611d1d565b92915050565b611d5081611999565b8114611d5b57600080fd5b50565b600081519050611d6d81611d47565b92915050565b600060208284031215611d8957611d88611a04565b5b6000611d9784828501611d5e565b91505092915050565b60008160000b9050919050565b6000611db882611da0565b91507fffffffffffffffffffffffffffffffffffffffffffffffffffffffffffffff808203611dea57611de9611c85565b5b816000039050919050565b6000611e0082611901565b9150611e0b83611901565b9250828203905077ffffffffffffffffffffffffffffffffffffffffffffffff811115611e3b57611e3a611c85565b5b92915050565b6000611e4c82611901565b9150611e5783611901565b9250828201905077ffffffffffffffffffffffffffffffffffffffffffffffff811115611e8757611e86611c85565b5b92915050565b600069ffffffffffffffffffff82169050919050565b611eac81611e8d565b8114611eb757600080fd5b50565b600081519050611ec981611ea3565b92915050565b6000819050919050565b611ee281611ecf565b8114611eed57600080fd5b50565b600081519050611eff81611ed9565b92915050565b600080600080600060a08688031215611f2157611f20611a04565b5b6000611f2f88828901611eba565b9550506020611f4088828901611ef0565b9450506040611f5188828901611d5e565b9350506060611f6288828901611d5e565b9250506080611f7388828901611eba565b9150509295509295909350565b6000611f8b82611999565b9150611f9683611999565b9250828203905081811115611fae57611fad611c85565b5b92915050565b611fbd816119cd565b8114611fc857600080fd5b50565b600081519050611fda81611fb4565b92915050565b600060208284031215611ff657611ff5611a04565b5b600061200484828501611fcb565b91505092915050565b600061201882611999565b915061202383611999565b925082820261203181611999565b9150828204841483151761204857612047611c85565b5b5092915050565b600061205a82611999565b915061206583611999565b925082820190508082111561207d5761207c611c85565b5b92915050565b7f4e487b7100000000000000000000000000000000000000000000000000000000600052601260045260246000fd5b60006120bd82611da0565b91506120c883611da0565b925082820190507fffffffffffffffffffffffffffffffffffffffffffffffffffffffffffffff808112607f8213171561210557612104611c85565b5b92915050565b60008160011c9050919050565b6000808291508390505b60018511156121625780860481111561213e5761213d611c85565b5b600185161561214d5780820291505b808102905061215b8561210b565b9450612122565b94509492505050565b60008261217b5760019050612237565b816121895760009050612237565b816001811461219f57600281146121a9576121d8565b6001915050612237565b60ff8411156121bb576121ba611c85565b5b8360020a9150848211156121d2576121d1611c85565b5b50612237565b5060208310610133831016604e8410600b841016171561220d5782820a90508381111561220857612207611c85565b5b612237565b61221a8484846001612118565b9250905081840481111561223157612230611c85565b5b81810290505b9392505050565b600061224982611999565b915061225483611999565b92506122817fffffffffffffffffffffffffffffffffffffffffffffffffffffffffffffffff848461216b565b905092915050565b600061229482611999565b915061229f83611999565b9250826122af576122ae612083565b5b828204905092915050565b60006122c582611999565b91506122d083611999565b9250826122e0576122df612083565b5b828206905092915050565b60006122f682611999565b91507fffffffffffffffffffffffffffffffffffffffffffffffffffffffffffffffff820361232857612327611c85565b5b600182019050919050565b600061233e82611ecf565b91507f800000000000000000000000000000000000000000000000000000000000000082036123705761236f611c85565b5b81600003905091905056fea26469706673582212205b5cda0b3571010923c7b5fcb74edb3d7165e41e4e132f4d19c6b82358faa93164736f6c63430008110033",
  "linkReferences": {},
  "deployedLinkReferences": {}
}