{
  "_format": "hh-sol-artifact-1",
  "contractName": "Asset",
  "sourceName": "protocol/contracts/plugins/assets/Asset.sol",
  "abi": [
    {
      "inputs": [
        {
          "internalType": "uint48",
          "name": "priceTimeout_",
          "type": "uint48"
        },
        {
          "internalType": "contract AggregatorV3Interface",
          "name": "chainlinkFeed_",
          "type": "address"
        },
        {
          "internalType": "uint192",
          "name": "oracleError_",
          "type": "uint192"
        },
        {
          "internalType": "contract IERC20Metadata",
          "name": "erc20_",
          "type": "address"
        },
        {
          "internalType": "uint192",
          "name": "maxTradeVolume_",
          "type": "uint192"
        },
        {
          "internalType": "uint48",
          "name": "oracleTimeout_",
          "type": "uint48"
        }
      ],
      "stateMutability": "nonpayable",
      "type": "constructor"
    },
    {
      "inputs": [],
      "name": "StalePrice",
      "type": "error"
    },
    {
      "inputs": [],
      "name": "UIntOutOfBounds",
      "type": "error"
    },
    {
      "anonymous": false,
      "inputs": [
        {
          "indexed": true,
          "internalType": "contract IERC20",
          "name": "erc20",
          "type": "address"
        },
        {
          "indexed": true,
          "internalType": "uint256",
          "name": "amount",
          "type": "uint256"
        }
      ],
      "name": "RewardsClaimed",
      "type": "event"
    },
    {
      "inputs": [
        {
          "internalType": "address",
          "name": "account",
          "type": "address"
        }
      ],
      "name": "bal",
      "outputs": [
        {
          "internalType": "uint192",
          "name": "",
          "type": "uint192"
        }
      ],
      "stateMutability": "view",
      "type": "function"
    },
    {
      "inputs": [],
      "name": "chainlinkFeed",
      "outputs": [
        {
          "internalType": "contract AggregatorV3Interface",
          "name": "",
          "type": "address"
        }
      ],
      "stateMutability": "view",
      "type": "function"
    },
    {
      "inputs": [],
      "name": "claimRewards",
      "outputs": [],
      "stateMutability": "nonpayable",
      "type": "function"
    },
    {
      "inputs": [],
      "name": "erc20",
      "outputs": [
        {
          "internalType": "contract IERC20Metadata",
          "name": "",
          "type": "address"
        }
      ],
      "stateMutability": "view",
      "type": "function"
    },
    {
      "inputs": [],
      "name": "erc20Decimals",
      "outputs": [
        {
          "internalType": "uint8",
          "name": "",
          "type": "uint8"
        }
      ],
      "stateMutability": "view",
      "type": "function"
    },
    {
      "inputs": [],
      "name": "isCollateral",
      "outputs": [
        {
          "internalType": "bool",
          "name": "",
          "type": "bool"
        }
      ],
      "stateMutability": "pure",
      "type": "function"
    },
    {
      "inputs": [],
      "name": "lastSave",
      "outputs": [
        {
          "internalType": "uint48",
          "name": "",
          "type": "uint48"
        }
      ],
      "stateMutability": "view",
      "type": "function"
    },
    {
      "inputs": [],
      "name": "lotPrice",
      "outputs": [
        {
          "internalType": "uint192",
          "name": "lotLow",
          "type": "uint192"
        },
        {
          "internalType": "uint192",
          "name": "lotHigh",
          "type": "uint192"
        }
      ],
      "stateMutability": "view",
      "type": "function"
    },
    {
      "inputs": [],
      "name": "maxTradeVolume",
      "outputs": [
        {
          "internalType": "uint192",
          "name": "",
          "type": "uint192"
        }
      ],
      "stateMutability": "view",
      "type": "function"
    },
    {
      "inputs": [],
      "name": "oracleError",
      "outputs": [
        {
          "internalType": "uint192",
          "name": "",
          "type": "uint192"
        }
      ],
      "stateMutability": "view",
      "type": "function"
    },
    {
      "inputs": [],
      "name": "oracleTimeout",
      "outputs": [
        {
          "internalType": "uint48",
          "name": "",
          "type": "uint48"
        }
      ],
      "stateMutability": "view",
      "type": "function"
    },
    {
      "inputs": [],
      "name": "price",
      "outputs": [
        {
          "internalType": "uint192",
          "name": "",
          "type": "uint192"
        },
        {
          "internalType": "uint192",
          "name": "",
          "type": "uint192"
        }
      ],
      "stateMutability": "view",
      "type": "function"
    },
    {
      "inputs": [],
      "name": "priceTimeout",
      "outputs": [
        {
          "internalType": "uint48",
          "name": "",
          "type": "uint48"
        }
      ],
      "stateMutability": "view",
      "type": "function"
    },
    {
      "inputs": [],
      "name": "refresh",
      "outputs": [],
      "stateMutability": "nonpayable",
      "type": "function"
    },
    {
      "inputs": [],
      "name": "savedHighPrice",
      "outputs": [
        {
          "internalType": "uint192",
          "name": "",
          "type": "uint192"
        }
      ],
      "stateMutability": "view",
      "type": "function"
    },
    {
      "inputs": [],
      "name": "savedLowPrice",
      "outputs": [
        {
          "internalType": "uint192",
          "name": "",
          "type": "uint192"
        }
      ],
      "stateMutability": "view",
      "type": "function"
    },
    {
      "inputs": [],
      "name": "tryPrice",
      "outputs": [
        {
          "internalType": "uint192",
          "name": "low",
          "type": "uint192"
        },
        {
          "internalType": "uint192",
          "name": "high",
          "type": "uint192"
        },
        {
          "internalType": "uint192",
          "name": "",
          "type": "uint192"
        }
      ],
      "stateMutability": "view",
      "type": "function"
    }
  ],
  "bytecode": "0x6101606040523480156200001257600080fd5b506040516200269a3803806200269a8339818101604052810190620000389190620005c5565b60008665ffffffffffff161162000086576040517f08c379a00000000000000000000000000000000000000000000000000000000081526004016200007d90620006c2565b60405180910390fd5b600073ffffffffffffffffffffffffffffffffffffffff168573ffffffffffffffffffffffffffffffffffffffff1603620000f8576040517f08c379a0000000000000000000000000000000000000000000000000000000008152600401620000ef9062000734565b60405180910390fd5b60008477ffffffffffffffffffffffffffffffffffffffffffffffff16118015620001685750670de0b6b3a764000067ffffffffffffffff1677ffffffffffffffffffffffffffffffffffffffffffffffff168477ffffffffffffffffffffffffffffffffffffffffffffffff16105b620001aa576040517f08c379a0000000000000000000000000000000000000000000000000000000008152600401620001a190620007a6565b60405180910390fd5b600073ffffffffffffffffffffffffffffffffffffffff168373ffffffffffffffffffffffffffffffffffffffff16036200021c576040517f08c379a0000000000000000000000000000000000000000000000000000000008152600401620002139062000818565b60405180910390fd5b60008277ffffffffffffffffffffffffffffffffffffffffffffffff16116200027c576040517f08c379a000000000000000000000000000000000000000000000000000000000815260040162000273906200088a565b60405180910390fd5b60008165ffffffffffff1611620002ca576040517f08c379a0000000000000000000000000000000000000000000000000000000008152600401620002c190620008fc565b60405180910390fd5b8565ffffffffffff166101408165ffffffffffff16815250508473ffffffffffffffffffffffffffffffffffffffff1660808173ffffffffffffffffffffffffffffffffffffffff16815250508377ffffffffffffffffffffffffffffffffffffffffffffffff166101208177ffffffffffffffffffffffffffffffffffffffffffffffff16815250508273ffffffffffffffffffffffffffffffffffffffff1660a08173ffffffffffffffffffffffffffffffffffffffff168152505060a05173ffffffffffffffffffffffffffffffffffffffff1663313ce5676040518163ffffffff1660e01b8152600401602060405180830381865afa158015620003d6573d6000803e3d6000fd5b505050506040513d601f19601f82011682018060405250810190620003fc91906200095c565b60ff1660c08160ff16815250508177ffffffffffffffffffffffffffffffffffffffffffffffff1660e08177ffffffffffffffffffffffffffffffffffffffffffffffff16815250508065ffffffffffff166101008165ffffffffffff16815250505050505050506200098e565b600080fd5b600065ffffffffffff82169050919050565b6200048c816200046f565b81146200049857600080fd5b50565b600081519050620004ac8162000481565b92915050565b600073ffffffffffffffffffffffffffffffffffffffff82169050919050565b6000620004df82620004b2565b9050919050565b6000620004f382620004d2565b9050919050565b6200050581620004e6565b81146200051157600080fd5b50565b6000815190506200052581620004fa565b92915050565b600077ffffffffffffffffffffffffffffffffffffffffffffffff82169050919050565b6200055a816200052b565b81146200056657600080fd5b50565b6000815190506200057a816200054f565b92915050565b60006200058d82620004d2565b9050919050565b6200059f8162000580565b8114620005ab57600080fd5b50565b600081519050620005bf8162000594565b92915050565b60008060008060008060c08789031215620005e557620005e46200046a565b5b6000620005f589828a016200049b565b96505060206200060889828a0162000514565b95505060406200061b89828a0162000569565b94505060606200062e89828a01620005ae565b93505060806200064189828a0162000569565b92505060a06200065489828a016200049b565b9150509295509295509295565b600082825260208201905092915050565b7f70726963652074696d656f7574207a65726f0000000000000000000000000000600082015250565b6000620006aa60128362000661565b9150620006b78262000672565b602082019050919050565b60006020820190508181036000830152620006dd816200069b565b9050919050565b7f6d697373696e6720636861696e6c696e6b206665656400000000000000000000600082015250565b60006200071c60168362000661565b91506200072982620006e4565b602082019050919050565b600060208201905081810360008301526200074f816200070d565b9050919050565b7f6f7261636c65206572726f72206f7574206f662072616e676500000000000000600082015250565b60006200078e60198362000661565b91506200079b8262000756565b602082019050919050565b60006020820190508181036000830152620007c1816200077f565b9050919050565b7f6d697373696e6720657263323000000000000000000000000000000000000000600082015250565b600062000800600d8362000661565b91506200080d82620007c8565b602082019050919050565b600060208201905081810360008301526200083381620007f1565b9050919050565b7f696e76616c6964206d617820747261646520766f6c756d650000000000000000600082015250565b60006200087260188362000661565b91506200087f826200083a565b602082019050919050565b60006020820190508181036000830152620008a58162000863565b9050919050565b7f6f7261636c6554696d656f7574207a65726f0000000000000000000000000000600082015250565b6000620008e460128362000661565b9150620008f182620008ac565b602082019050919050565b600060208201905081810360008301526200091781620008d5565b9050919050565b600060ff82169050919050565b62000936816200091e565b81146200094257600080fd5b50565b60008151905062000956816200092b565b92915050565b6000602082840312156200097557620009746200046a565b5b6000620009858482850162000945565b91505092915050565b60805160a05160c05160e051610100516101205161014051611c7962000a21600039600081816103d10152818161041c0152818161044f015261058301526000818161073c01526109870152600081816106cf0152610963015260006107d60152600081816105a9015261066c0152600081816105d201526106a20152600081816106f001526107b20152611c796000f3fe608060405234801561001057600080fd5b506004361061010b5760003560e01c806395acc4ae116100a2578063abfeece511610071578063abfeece51461027a578063c55f29d114610298578063c59b3d63146102b6578063ddc0c7c8146102d4578063f8ac93e8146102f25761010b565b806395acc4ae1461020157806396f80ae91461021f5780639ec072721461023d578063a035b1fe1461025b5761010b565b80635580f72a116100de5780635580f72a14610175578063785e9e86146101a55780637d1ea137146101c35780637dbdf1f5146101e35761010b565b8063271181ec146101105780632bcfaa801461012f578063372500ab1461014d5780633cb5d37914610157575b600080fd5b6101186102fc565b60405161012692919061125f565b60405180910390f35b610137610581565b60405161014491906112a9565b60405180910390f35b6101556105a5565b005b61015f6105a7565b60405161016c91906112e0565b60405180910390f35b61018f600480360381019061018a919061135e565b6105cb565b60405161019c919061138b565b60405180910390f35b6101ad6106a0565b6040516101ba9190611405565b60405180910390f35b6101cb6106c4565b6040516101da93929190611420565b60405180910390f35b6101eb6107b0565b6040516101f89190611478565b60405180910390f35b6102096107d4565b604051610216919061138b565b60405180910390f35b6102276107f8565b60405161023491906112a9565b60405180910390f35b610245610810565b604051610252919061138b565b60405180910390f35b61026361083a565b60405161027192919061125f565b60405180910390f35b610282610961565b60405161028f91906112a9565b60405180910390f35b6102a0610985565b6040516102ad919061138b565b60405180910390f35b6102be6109a9565b6040516102cb91906114ae565b60405180910390f35b6102dc6109ae565b6040516102e9919061138b565b60405180910390f35b6102fa6109d6565b005b6000803073ffffffffffffffffffffffffffffffffffffffff16637d1ea1376040518163ffffffff1660e01b8152600401606060405180830381865afa92505050801561036757506040513d601f19601f8201168201806040525081019061036491906114f5565b60015b61052d573d8060008114610397576040519150601f19603f3d011682016040523d82523d6000602084013e61039c565b606091505b5060008151036103ab57600080fd5b6000600160189054906101000a900465ffffffffffff16426103cd9190611577565b90507f000000000000000000000000000000000000000000000000000000000000000065ffffffffffff168165ffffffffffff16106104145760008093509350505061057d565b600061047b827f00000000000000000000000000000000000000000000000000000000000000006104459190611577565b65ffffffffffff167f000000000000000000000000000000000000000000000000000000000000000065ffffffffffff16610bb1565b90506104ce8160008054906101000a900477ffffffffffffffffffffffffffffffffffffffffffffffff1677ffffffffffffffffffffffffffffffffffffffffffffffff16610be090919063ffffffff16565b945061052381600160009054906101000a900477ffffffffffffffffffffffffffffffffffffffffffffffff1677ffffffffffffffffffffffffffffffffffffffffffffffff16610be090919063ffffffff16565b9350505050610537565b8294508193505050505b8077ffffffffffffffffffffffffffffffffffffffffffffffff168277ffffffffffffffffffffffffffffffffffffffffffffffff16111561057c5761057b6115b1565b5b5b9091565b7f000000000000000000000000000000000000000000000000000000000000000081565b565b7f000000000000000000000000000000000000000000000000000000000000000081565b60006106997f000000000000000000000000000000000000000000000000000000000000000073ffffffffffffffffffffffffffffffffffffffff166370a08231846040518263ffffffff1660e01b815260040161062991906115ef565b602060405180830381865afa158015610646573d6000803e3d6000fd5b505050506040513d601f19601f8201168201806040525081019061066a9190611640565b7f00000000000000000000000000000000000000000000000000000000000000006106949061167a565b610bf6565b9050919050565b7f000000000000000000000000000000000000000000000000000000000000000081565b6000806000806107337f00000000000000000000000000000000000000000000000000000000000000007f000000000000000000000000000000000000000000000000000000000000000073ffffffffffffffffffffffffffffffffffffffff16610c0c90919063ffffffff16565b905060006107877f000000000000000000000000000000000000000000000000000000000000000060028477ffffffffffffffffffffffffffffffffffffffffffffffff16610dd19092919063ffffffff16565b9050808261079591906116c2565b81836107a1919061170e565b60009450945094505050909192565b7f000000000000000000000000000000000000000000000000000000000000000081565b7f000000000000000000000000000000000000000000000000000000000000000081565b600160189054906101000a900465ffffffffffff1681565b600160009054906101000a900477ffffffffffffffffffffffffffffffffffffffffffffffff1681565b6000803073ffffffffffffffffffffffffffffffffffffffff16637d1ea1376040518163ffffffff1660e01b8152600401606060405180830381865afa9250505080156108a557506040513d601f19601f820116820180604052508101906108a291906114f5565b60015b61090e573d80600081146108d5576040519150601f19603f3d011682016040523d82523d6000602084013e6108da565b606091505b5060008151036108e957600080fd5b600077ffffffffffffffffffffffffffffffffffffffffffffffff925092505061095d565b8177ffffffffffffffffffffffffffffffffffffffffffffffff168377ffffffffffffffffffffffffffffffffffffffffffffffff161115610953576109526115b1565b5b8282945094505050505b9091565b7f000000000000000000000000000000000000000000000000000000000000000081565b7f000000000000000000000000000000000000000000000000000000000000000081565b600090565b60008054906101000a900477ffffffffffffffffffffffffffffffffffffffffffffffff1681565b3073ffffffffffffffffffffffffffffffffffffffff16637d1ea1376040518163ffffffff1660e01b8152600401606060405180830381865afa925050508015610a3e57506040513d601f19601f82011682018060405250810190610a3b91906114f5565b60015b610a88573d8060008114610a6e576040519150601f19603f3d011682016040523d82523d6000602084013e610a73565b606091505b506000815103610a8257600080fd5b50610baf565b77ffffffffffffffffffffffffffffffffffffffffffffffff80168277ffffffffffffffffffffffffffffffffffffffffffffffff161015610b7f57826000806101000a81548177ffffffffffffffffffffffffffffffffffffffffffffffff021916908377ffffffffffffffffffffffffffffffffffffffffffffffff16021790555081600160006101000a81548177ffffffffffffffffffffffffffffffffffffffffffffffff021916908377ffffffffffffffffffffffffffffffffffffffffffffffff16021790555042600160186101000a81548165ffffffffffff021916908365ffffffffffff160217905550610bab565b60008377ffffffffffffffffffffffffffffffffffffffffffffffff1614610baa57610ba96115b1565b5b5b5050505b565b6000610bd8610bd3670de0b6b3a764000067ffffffffffffffff168585610e40565b610f6a565b905092915050565b6000610bee83836001610dd1565b905092915050565b6000610c0483836000610fc8565b905092915050565b60008060008060008673ffffffffffffffffffffffffffffffffffffffff1663feaf968c6040518163ffffffff1660e01b815260040160a060405180830381865afa158015610c5f573d6000803e3d6000fd5b505050506040513d601f19601f82011682018060405250810190610c8391906117d2565b9450945050935093506000821480610cb257508369ffffffffffffffffffff168169ffffffffffffffffffff16105b15610ce9576040517f19abf40e00000000000000000000000000000000000000000000000000000000815260040160405180910390fd5b60008242610cf7919061184d565b90508665ffffffffffff168165ffffffffffff161115610d43576040517f19abf40e00000000000000000000000000000000000000000000000000000000815260040160405180910390fd5b610dc4848973ffffffffffffffffffffffffffffffffffffffff1663313ce5676040518163ffffffff1660e01b8152600401602060405180830381865afa158015610d92573d6000803e3d6000fd5b505050506040513d601f19601f82011682018060405250810190610db691906118ad565b610dbf9061167a565b610bf6565b9550505050505092915050565b6000610e37610e328477ffffffffffffffffffffffffffffffffffffffffffffffff168677ffffffffffffffffffffffffffffffffffffffffffffffff16610e1991906118da565b670de0b6b3a764000067ffffffffffffffff16856110ec565b610f6a565b90509392505050565b6000806000610e4f86866111cd565b91509150838210610e8c576040517ff44398f500000000000000000000000000000000000000000000000000000000815260040160405180910390fd5b60008480610e9d57610e9c61191c565b5b868809905081811115610eb1576001830392505b808203915060008560000386169050808681610ed057610ecf61191c565b5b049550808381610ee357610ee261191c565b5b0492506001818260000381610efb57610efa61191c565b5b04018402830192506000600190508087026002038102905080870260020381029050808702600203810290508087026002038102905080870260020381029050808702600203810290508087026002038102905080870260020381029050808402955050505050509392505050565b60008177ffffffffffffffffffffffffffffffffffffffffffffffff80161015610fc0576040517ff44398f500000000000000000000000000000000000000000000000000000000815260040160405180910390fd5b819050919050565b6000808403610fda57600090506110e5565b7fffffffffffffffffffffffffffffffffffffffffffffffffffffffffffffffa08360000b13611043576002808111156110175761101661194b565b5b82600281111561102a5761102961194b565b5b14611036576000611039565b60015b60ff1690506110e5565b8260000b602813611080576040517ff44398f500000000000000000000000000000000000000000000000000000000815260040160405180910390fd5b60128361108d919061197a565b9250600061109d8460000b61120b565b600a6110a99190611b06565b90506000808560000b12156110c8576110c38683866110ec565b6110d5565b81866110d491906118da565b5b90506110e081610f6a565b925050505b9392505050565b60008083856110fb9190611b51565b9050600060028111156111115761111061194b565b5b8360028111156111245761112361194b565b5b0361113257809150506111c6565b600160028111156111465761114561194b565b5b8360028111156111595761115861194b565b5b0361119d57600260018561116d919061184d565b6111779190611b51565b84866111839190611b82565b111561119857808061119490611bb3565b9150505b6111c1565b600084866111ab9190611b82565b11156111c05780806111bc90611bb3565b9150505b5b809150505b9392505050565b60008060006001600003806111e5576111e461191c565b5b84860990508385029150818103925081811015611203576001830392505b509250929050565b600080821261121a5781611225565b8161122490611bfb565b5b9050919050565b600077ffffffffffffffffffffffffffffffffffffffffffffffff82169050919050565b6112598161122c565b82525050565b60006040820190506112746000830185611250565b6112816020830184611250565b9392505050565b600065ffffffffffff82169050919050565b6112a381611288565b82525050565b60006020820190506112be600083018461129a565b92915050565b600060ff82169050919050565b6112da816112c4565b82525050565b60006020820190506112f560008301846112d1565b92915050565b600080fd5b600073ffffffffffffffffffffffffffffffffffffffff82169050919050565b600061132b82611300565b9050919050565b61133b81611320565b811461134657600080fd5b50565b60008135905061135881611332565b92915050565b600060208284031215611374576113736112fb565b5b600061138284828501611349565b91505092915050565b60006020820190506113a06000830184611250565b92915050565b6000819050919050565b60006113cb6113c66113c184611300565b6113a6565b611300565b9050919050565b60006113dd826113b0565b9050919050565b60006113ef826113d2565b9050919050565b6113ff816113e4565b82525050565b600060208201905061141a60008301846113f6565b92915050565b60006060820190506114356000830186611250565b6114426020830185611250565b61144f6040830184611250565b949350505050565b6000611462826113d2565b9050919050565b61147281611457565b82525050565b600060208201905061148d6000830184611469565b92915050565b60008115159050919050565b6114a881611493565b82525050565b60006020820190506114c3600083018461149f565b92915050565b6114d28161122c565b81146114dd57600080fd5b50565b6000815190506114ef816114c9565b92915050565b60008060006060848603121561150e5761150d6112fb565b5b600061151c868287016114e0565b935050602061152d868287016114e0565b925050604061153e868287016114e0565b9150509250925092565b7f4e487b7100000000000000000000000000000000000000000000000000000000600052601160045260246000fd5b600061158282611288565b915061158d83611288565b9250828203905065ffffffffffff8111156115ab576115aa611548565b5b92915050565b7f4e487b7100000000000000000000000000000000000000000000000000000000600052600160045260246000fd5b6115e981611320565b82525050565b600060208201905061160460008301846115e0565b92915050565b6000819050919050565b61161d8161160a565b811461162857600080fd5b50565b60008151905061163a81611614565b92915050565b600060208284031215611656576116556112fb565b5b60006116648482850161162b565b91505092915050565b60008160000b9050919050565b60006116858261166d565b91507fffffffffffffffffffffffffffffffffffffffffffffffffffffffffffffff8082036116b7576116b6611548565b5b816000039050919050565b60006116cd8261122c565b91506116d88361122c565b9250828203905077ffffffffffffffffffffffffffffffffffffffffffffffff81111561170857611707611548565b5b92915050565b60006117198261122c565b91506117248361122c565b9250828201905077ffffffffffffffffffffffffffffffffffffffffffffffff81111561175457611753611548565b5b92915050565b600069ffffffffffffffffffff82169050919050565b6117798161175a565b811461178457600080fd5b50565b60008151905061179681611770565b92915050565b6000819050919050565b6117af8161179c565b81146117ba57600080fd5b50565b6000815190506117cc816117a6565b92915050565b600080600080600060a086880312156117ee576117ed6112fb565b5b60006117fc88828901611787565b955050602061180d888289016117bd565b945050604061181e8882890161162b565b935050606061182f8882890161162b565b925050608061184088828901611787565b9150509295509295909350565b60006118588261160a565b91506118638361160a565b925082820390508181111561187b5761187a611548565b5b92915050565b61188a816112c4565b811461189557600080fd5b50565b6000815190506118a781611881565b92915050565b6000602082840312156118c3576118c26112fb565b5b60006118d184828501611898565b91505092915050565b60006118e58261160a565b91506118f08361160a565b92508282026118fe8161160a565b9150828204841483151761191557611914611548565b5b5092915050565b7f4e487b7100000000000000000000000000000000000000000000000000000000600052601260045260246000fd5b7f4e487b7100000000000000000000000000000000000000000000000000000000600052602160045260246000fd5b60006119858261166d565b91506119908361166d565b925082820190507fffffffffffffffffffffffffffffffffffffffffffffffffffffffffffffff808112607f821317156119cd576119cc611548565b5b92915050565b60008160011c9050919050565b6000808291508390505b6001851115611a2a57808604811115611a0657611a05611548565b5b6001851615611a155780820291505b8081029050611a23856119d3565b94506119ea565b94509492505050565b600082611a435760019050611aff565b81611a515760009050611aff565b8160018114611a675760028114611a7157611aa0565b6001915050611aff565b60ff841115611a8357611a82611548565b5b8360020a915084821115611a9a57611a99611548565b5b50611aff565b5060208310610133831016604e8410600b8410161715611ad55782820a905083811115611ad057611acf611548565b5b611aff565b611ae284848460016119e0565b92509050818404811115611af957611af8611548565b5b81810290505b9392505050565b6000611b118261160a565b9150611b1c8361160a565b9250611b497fffffffffffffffffffffffffffffffffffffffffffffffffffffffffffffffff8484611a33565b905092915050565b6000611b5c8261160a565b9150611b678361160a565b925082611b7757611b7661191c565b5b828204905092915050565b6000611b8d8261160a565b9150611b988361160a565b925082611ba857611ba761191c565b5b828206905092915050565b6000611bbe8261160a565b91507fffffffffffffffffffffffffffffffffffffffffffffffffffffffffffffffff8203611bf057611bef611548565b5b600182019050919050565b6000611c068261179c565b91507f80000000000000000000000000000000000000000000000000000000000000008203611c3857611c37611548565b5b81600003905091905056fea264697066735822122029229063192120cd3624475697c676a162c4ac698a7b9282d4f2e455ccb33e8f64736f6c63430008110033",
  "linkReferences": {},
  "deployedLinkReferences": {}
}