{
  "_format": "hh-sol-artifact-1",
  "contractName": "WUNI_V3_POSCollateral",
  "sourceName": "contracts/wUNI_V3_POSCollateral.sol",
  "abi": [
    {
      "inputs": [
        {
          "internalType": "uint192",
          "name": "revenueHiding",
          "type": "uint192"
        },
        {
          "internalType": "address",
          "name": "tempIUNI_V3_POS_Wrapper",
          "type": "address"
        },
        {
          "internalType": "address",
          "name": "_pairPool",
          "type": "address"
        },
        {
          "internalType": "address",
          "name": "_IwUNI_V3_POS",
          "type": "address"
        },
        {
          "internalType": "int256",
          "name": "_demurrageRate",
          "type": "int256"
        },
        {
          "internalType": "int256",
          "name": "_t",
          "type": "int256"
        },
        {
          "components": [
            {
              "internalType": "uint48",
              "name": "priceTimeout",
              "type": "uint48"
            },
            {
              "internalType": "contract AggregatorV3Interface",
              "name": "chainlinkFeed",
              "type": "address"
            },
            {
              "internalType": "uint192",
              "name": "oracleError",
              "type": "uint192"
            },
            {
              "internalType": "contract IERC20Metadata",
              "name": "erc20",
              "type": "address"
            },
            {
              "internalType": "uint192",
              "name": "maxTradeVolume",
              "type": "uint192"
            },
            {
              "internalType": "uint48",
              "name": "oracleTimeout",
              "type": "uint48"
            },
            {
              "internalType": "bytes32",
              "name": "targetName",
              "type": "bytes32"
            },
            {
              "internalType": "uint192",
              "name": "defaultThreshold",
              "type": "uint192"
            },
            {
              "internalType": "uint48",
              "name": "delayUntilDefault",
              "type": "uint48"
            }
          ],
          "internalType": "struct CollateralConfig",
          "name": "config",
          "type": "tuple"
        }
      ],
      "stateMutability": "nonpayable",
      "type": "constructor"
    },
    {
      "inputs": [],
      "name": "UIntOutOfBounds",
      "type": "error"
    },
    {
      "anonymous": false,
      "inputs": [
        {
          "indexed": true,
          "internalType": "enum CollateralStatus",
          "name": "oldStatus",
          "type": "uint8"
        },
        {
          "indexed": true,
          "internalType": "enum CollateralStatus",
          "name": "newStatus",
          "type": "uint8"
        }
      ],
      "name": "CollateralStatusChanged",
      "type": "event"
    },
    {
      "anonymous": false,
      "inputs": [
        {
          "indexed": true,
          "internalType": "contract IERC20",
          "name": "erc20",
          "type": "address"
        },
        {
          "indexed": true,
          "internalType": "uint256",
          "name": "amount",
          "type": "uint256"
        }
      ],
      "name": "RewardsClaimed",
      "type": "event"
    },
    {
      "inputs": [
        {
          "internalType": "address",
          "name": "account",
          "type": "address"
        }
      ],
      "name": "bal",
      "outputs": [
        {
          "internalType": "uint192",
          "name": "",
          "type": "uint192"
        }
      ],
      "stateMutability": "view",
      "type": "function"
    },
    {
      "inputs": [],
      "name": "chainlinkFeed",
      "outputs": [
        {
          "internalType": "contract AggregatorV3Interface",
          "name": "",
          "type": "address"
        }
      ],
      "stateMutability": "view",
      "type": "function"
    },
    {
      "inputs": [],
      "name": "claimRewards",
      "outputs": [],
      "stateMutability": "nonpayable",
      "type": "function"
    },
    {
      "inputs": [
        {
          "internalType": "uint256",
          "name": "_positionId",
          "type": "uint256"
        },
        {
          "internalType": "address",
          "name": "_recipient",
          "type": "address"
        }
      ],
      "name": "claimRewardsForPositionId",
      "outputs": [],
      "stateMutability": "nonpayable",
      "type": "function"
    },
    {
      "inputs": [],
      "name": "delayUntilDefault",
      "outputs": [
        {
          "internalType": "uint48",
          "name": "",
          "type": "uint48"
        }
      ],
      "stateMutability": "view",
      "type": "function"
    },
    {
      "inputs": [],
      "name": "demurrageRate",
      "outputs": [
        {
          "internalType": "int256",
          "name": "",
          "type": "int256"
        }
      ],
      "stateMutability": "view",
      "type": "function"
    },
    {
      "inputs": [],
      "name": "erc20",
      "outputs": [
        {
          "internalType": "contract IERC20Metadata",
          "name": "",
          "type": "address"
        }
      ],
      "stateMutability": "view",
      "type": "function"
    },
    {
      "inputs": [],
      "name": "erc20Decimals",
      "outputs": [
        {
          "internalType": "uint8",
          "name": "",
          "type": "uint8"
        }
      ],
      "stateMutability": "view",
      "type": "function"
    },
    {
      "inputs": [],
      "name": "exposedReferencePrice",
      "outputs": [
        {
          "internalType": "uint192",
          "name": "",
          "type": "uint192"
        }
      ],
      "stateMutability": "view",
      "type": "function"
    },
    {
      "inputs": [],
      "name": "isCollateral",
      "outputs": [
        {
          "internalType": "bool",
          "name": "",
          "type": "bool"
        }
      ],
      "stateMutability": "pure",
      "type": "function"
    },
    {
      "inputs": [],
      "name": "lastSave",
      "outputs": [
        {
          "internalType": "uint48",
          "name": "",
          "type": "uint48"
        }
      ],
      "stateMutability": "view",
      "type": "function"
    },
    {
      "inputs": [],
      "name": "lotPrice",
      "outputs": [
        {
          "internalType": "uint192",
          "name": "lotLow",
          "type": "uint192"
        },
        {
          "internalType": "uint192",
          "name": "lotHigh",
          "type": "uint192"
        }
      ],
      "stateMutability": "view",
      "type": "function"
    },
    {
      "inputs": [],
      "name": "maxTradeVolume",
      "outputs": [
        {
          "internalType": "uint192",
          "name": "",
          "type": "uint192"
        }
      ],
      "stateMutability": "view",
      "type": "function"
    },
    {
      "inputs": [],
      "name": "oracleError",
      "outputs": [
        {
          "internalType": "uint192",
          "name": "",
          "type": "uint192"
        }
      ],
      "stateMutability": "view",
      "type": "function"
    },
    {
      "inputs": [],
      "name": "oracleTimeout",
      "outputs": [
        {
          "internalType": "uint48",
          "name": "",
          "type": "uint48"
        }
      ],
      "stateMutability": "view",
      "type": "function"
    },
    {
      "inputs": [],
      "name": "pairPool",
      "outputs": [
        {
          "internalType": "contract IUniswapV3Pool",
          "name": "",
          "type": "address"
        }
      ],
      "stateMutability": "view",
      "type": "function"
    },
    {
      "inputs": [],
      "name": "pegBottom",
      "outputs": [
        {
          "internalType": "uint192",
          "name": "",
          "type": "uint192"
        }
      ],
      "stateMutability": "view",
      "type": "function"
    },
    {
      "inputs": [],
      "name": "pegTop",
      "outputs": [
        {
          "internalType": "uint192",
          "name": "",
          "type": "uint192"
        }
      ],
      "stateMutability": "view",
      "type": "function"
    },
    {
      "inputs": [],
      "name": "price",
      "outputs": [
        {
          "internalType": "uint192",
          "name": "",
          "type": "uint192"
        },
        {
          "internalType": "uint192",
          "name": "",
          "type": "uint192"
        }
      ],
      "stateMutability": "view",
      "type": "function"
    },
    {
      "inputs": [],
      "name": "priceTimeout",
      "outputs": [
        {
          "internalType": "uint48",
          "name": "",
          "type": "uint48"
        }
      ],
      "stateMutability": "view",
      "type": "function"
    },
    {
      "inputs": [],
      "name": "refPerTok",
      "outputs": [
        {
          "internalType": "uint192",
          "name": "_refPerTok",
          "type": "uint192"
        }
      ],
      "stateMutability": "view",
      "type": "function"
    },
    {
      "inputs": [],
      "name": "refresh",
      "outputs": [],
      "stateMutability": "nonpayable",
      "type": "function"
    },
    {
      "inputs": [],
      "name": "revenueShowing",
      "outputs": [
        {
          "internalType": "uint192",
          "name": "",
          "type": "uint192"
        }
      ],
      "stateMutability": "view",
      "type": "function"
    },
    {
      "inputs": [],
      "name": "rewardERC20",
      "outputs": [
        {
          "internalType": "contract IERC20",
          "name": "",
          "type": "address"
        }
      ],
      "stateMutability": "view",
      "type": "function"
    },
    {
      "inputs": [],
      "name": "savedHighPrice",
      "outputs": [
        {
          "internalType": "uint192",
          "name": "",
          "type": "uint192"
        }
      ],
      "stateMutability": "view",
      "type": "function"
    },
    {
      "inputs": [],
      "name": "savedLowPrice",
      "outputs": [
        {
          "internalType": "uint192",
          "name": "",
          "type": "uint192"
        }
      ],
      "stateMutability": "view",
      "type": "function"
    },
    {
      "inputs": [],
      "name": "status",
      "outputs": [
        {
          "internalType": "enum CollateralStatus",
          "name": "",
          "type": "uint8"
        }
      ],
      "stateMutability": "view",
      "type": "function"
    },
    {
      "inputs": [],
      "name": "t",
      "outputs": [
        {
          "internalType": "int256",
          "name": "",
          "type": "int256"
        }
      ],
      "stateMutability": "view",
      "type": "function"
    },
    {
      "inputs": [],
      "name": "targetName",
      "outputs": [
        {
          "internalType": "bytes32",
          "name": "",
          "type": "bytes32"
        }
      ],
      "stateMutability": "view",
      "type": "function"
    },
    {
      "inputs": [],
      "name": "targetPerRef",
      "outputs": [
        {
          "internalType": "uint192",
          "name": "_targetPerRef",
          "type": "uint192"
        }
      ],
      "stateMutability": "view",
      "type": "function"
    },
    {
      "inputs": [],
      "name": "tryPrice",
      "outputs": [
        {
          "internalType": "uint192",
          "name": "low",
          "type": "uint192"
        },
        {
          "internalType": "uint192",
          "name": "high",
          "type": "uint192"
        },
        {
          "internalType": "uint192",
          "name": "pegPrice",
          "type": "uint192"
        }
      ],
      "stateMutability": "view",
      "type": "function"
    },
    {
      "inputs": [],
      "name": "wUNI_V3_POS",
      "outputs": [
        {
          "internalType": "contract IwUNI_V3_POS",
          "name": "",
          "type": "address"
        }
      ],
      "stateMutability": "view",
      "type": "function"
    },
    {
      "inputs": [],
      "name": "whenDefault",
      "outputs": [
        {
          "internalType": "uint256",
          "name": "",
          "type": "uint256"
        }
      ],
      "stateMutability": "view",
      "type": "function"
    }
  ],
  "bytecode": "0x61020060405265ffffffffffff600260006101000a81548165ffffffffffff021916908365ffffffffffff1602179055503480156200003d57600080fd5b5060405162004d8d38038062004d8d8339818101604052810190620000639190620011de565b808781806000015181602001518260400151836060015184608001518560a0015160008665ffffffffffff1611620000d2576040517f08c379a0000000000000000000000000000000000000000000000000000000008152600401620000c990620012f3565b60405180910390fd5b600073ffffffffffffffffffffffffffffffffffffffff168573ffffffffffffffffffffffffffffffffffffffff160362000144576040517f08c379a00000000000000000000000000000000000000000000000000000000081526004016200013b9062001365565b60405180910390fd5b60008477ffffffffffffffffffffffffffffffffffffffffffffffff16118015620001b45750670de0b6b3a764000067ffffffffffffffff1677ffffffffffffffffffffffffffffffffffffffffffffffff168477ffffffffffffffffffffffffffffffffffffffffffffffff16105b620001f6576040517f08c379a0000000000000000000000000000000000000000000000000000000008152600401620001ed90620013d7565b60405180910390fd5b600073ffffffffffffffffffffffffffffffffffffffff168373ffffffffffffffffffffffffffffffffffffffff160362000268576040517f08c379a00000000000000000000000000000000000000000000000000000000081526004016200025f9062001449565b60405180910390fd5b60008277ffffffffffffffffffffffffffffffffffffffffffffffff1611620002c8576040517f08c379a0000000000000000000000000000000000000000000000000000000008152600401620002bf90620014bb565b60405180910390fd5b60008165ffffffffffff161162000316576040517f08c379a00000000000000000000000000000000000000000000000000000000081526004016200030d906200152d565b60405180910390fd5b8565ffffffffffff166101408165ffffffffffff16815250508473ffffffffffffffffffffffffffffffffffffffff1660808173ffffffffffffffffffffffffffffffffffffffff16815250508377ffffffffffffffffffffffffffffffffffffffffffffffff166101208177ffffffffffffffffffffffffffffffffffffffffffffffff16815250508273ffffffffffffffffffffffffffffffffffffffff1660a08173ffffffffffffffffffffffffffffffffffffffff168152505060a05173ffffffffffffffffffffffffffffffffffffffff1663313ce5676040518163ffffffff1660e01b8152600401602060405180830381865afa15801562000422573d6000803e3d6000fd5b505050506040513d601f19601f820116820180604052508101906200044891906200158d565b60ff1660c08160ff16815250508177ffffffffffffffffffffffffffffffffffffffffffffffff1660e08177ffffffffffffffffffffffffffffffffffffffffffffffff16815250508065ffffffffffff166101008165ffffffffffff16815250505050505050506000801b8160c0015103620004fc576040517f08c379a0000000000000000000000000000000000000000000000000000000008152600401620004f3906200160f565b60405180910390fd5b60008160e0015177ffffffffffffffffffffffffffffffffffffffffffffffff1611156200057857600081610100015165ffffffffffff161162000577576040517f08c379a00000000000000000000000000000000000000000000000000000000081526004016200056e9062001681565b60405180910390fd5b5b6212750081610100015165ffffffffffff161115620005ce576040517f08c379a0000000000000000000000000000000000000000000000000000000008152600401620005c590620016f3565b60405180910390fd5b8060c00151610180818152505080610100015165ffffffffffff166101608165ffffffffffff168152505060006200060b620008cd60201b60201c565b90506000620006478360e001518377ffffffffffffffffffffffffffffffffffffffffffffffff1662000c2a60201b620019cd1790919060201c565b9050808262000657919062001744565b77ffffffffffffffffffffffffffffffffffffffffffffffff166101a08177ffffffffffffffffffffffffffffffffffffffffffffffff16815250508082620006a1919062001797565b77ffffffffffffffffffffffffffffffffffffffffffffffff166101c08177ffffffffffffffffffffffffffffffffffffffffffffffff1681525050505050670de0b6b3a764000067ffffffffffffffff1677ffffffffffffffffffffffffffffffffffffffffffffffff168177ffffffffffffffffffffffffffffffffffffffffffffffff16106200076b576040517f08c379a000000000000000000000000000000000000000000000000000000000815260040162000762906200183a565b60405180910390fd5b620007b181670de0b6b3a764000067ffffffffffffffff1677ffffffffffffffffffffffffffffffffffffffffffffffff1662000c4860201b620019e31790919060201c565b77ffffffffffffffffffffffffffffffffffffffffffffffff166101e08177ffffffffffffffffffffffffffffffffffffffffffffffff1681525050505085600660006101000a81548173ffffffffffffffffffffffffffffffffffffffff021916908373ffffffffffffffffffffffffffffffffffffffff16021790555084600460006101000a81548173ffffffffffffffffffffffffffffffffffffffff021916908373ffffffffffffffffffffffffffffffffffffffff16021790555083600360006101000a81548173ffffffffffffffffffffffffffffffffffffffff021916908373ffffffffffffffffffffffffffffffffffffffff16021790555082600881905550816009819055505050505050505062001d32565b6000806000806000600660009054906101000a900473ffffffffffffffffffffffffffffffffffffffff1673ffffffffffffffffffffffffffffffffffffffff1663d6a51628600460009054906101000a900473ffffffffffffffffffffffffffffffffffffffff1673ffffffffffffffffffffffffffffffffffffffff16630dfe16816040518163ffffffff1660e01b8152600401602060405180830381865afa15801562000981573d6000803e3d6000fd5b505050506040513d601f19601f82011682018060405250810190620009a791906200185c565b600460009054906101000a900473ffffffffffffffffffffffffffffffffffffffff1673ffffffffffffffffffffffffffffffffffffffff1663d21220a76040518163ffffffff1660e01b8152600401602060405180830381865afa15801562000a15573d6000803e3d6000fd5b505050506040513d601f19601f8201168201806040525081019062000a3b91906200185c565b6040518363ffffffff1660e01b815260040162000a5a9291906200189f565b60c060405180830381865afa15801562000a78573d6000803e3d6000fd5b505050506040513d601f19601f8201168201806040525081019062000a9e919062001945565b955095505050935093506000600660009054906101000a900473ffffffffffffffffffffffffffffffffffffffff1673ffffffffffffffffffffffffffffffffffffffff16630e802db66040518163ffffffff1660e01b81526004016040805180830381865afa15801562000b17573d6000803e3d6000fd5b505050506040513d601f19601f8201168201806040525081019062000b3d9190620019e1565b77ffffffffffffffffffffffffffffffffffffffffffffffff1691505073__$83b3a7390ebb689ea35f0c451f8ef18f23$__6394fa8e6286868686600460009054906101000a900473ffffffffffffffffffffffffffffffffffffffff166040518663ffffffff1660e01b815260040162000bbd95949392919062001ab5565b602060405180830381865af415801562000bdb573d6000803e3d6000fd5b505050506040513d601f19601f8201168201806040525081019062000c01919062001b5f565b6fffffffffffffffffffffffffffffffff168162000c20919062001bc0565b9550505050505090565b600062000c408383600162000c6060201b60201c565b905092915050565b6000818362000c58919062001744565b905092915050565b600062000cd862000ccc8477ffffffffffffffffffffffffffffffffffffffffffffffff168677ffffffffffffffffffffffffffffffffffffffffffffffff1662000cac919062001bf8565b670de0b6b3a764000067ffffffffffffffff168562000ce160201b60201c565b62000de260201b60201c565b90509392505050565b600080838562000cf2919062001bc0565b90506000600281111562000d0b5762000d0a62001c43565b5b83600281111562000d215762000d2062001c43565b5b0362000d31578091505062000ddb565b6001600281111562000d485762000d4762001c43565b5b83600281111562000d5e5762000d5d62001c43565b5b0362000dad57600260018562000d75919062001c72565b62000d81919062001bc0565b848662000d8f919062001cad565b111562000da757808062000da39062001ce5565b9150505b62000dd6565b6000848662000dbd919062001cad565b111562000dd557808062000dd19062001ce5565b9150505b5b809150505b9392505050565b60008177ffffffffffffffffffffffffffffffffffffffffffffffff8016101562000e39576040517ff44398f500000000000000000000000000000000000000000000000000000000815260040160405180910390fd5b819050919050565b6000604051905090565b600080fd5b600077ffffffffffffffffffffffffffffffffffffffffffffffff82169050919050565b62000e7f8162000e50565b811462000e8b57600080fd5b50565b60008151905062000e9f8162000e74565b92915050565b600073ffffffffffffffffffffffffffffffffffffffff82169050919050565b600062000ed28262000ea5565b9050919050565b62000ee48162000ec5565b811462000ef057600080fd5b50565b60008151905062000f048162000ed9565b92915050565b6000819050919050565b62000f1f8162000f0a565b811462000f2b57600080fd5b50565b60008151905062000f3f8162000f14565b92915050565b600080fd5b6000601f19601f8301169050919050565b7f4e487b7100000000000000000000000000000000000000000000000000000000600052604160045260246000fd5b62000f958262000f4a565b810181811067ffffffffffffffff8211171562000fb75762000fb662000f5b565b5b80604052505050565b600062000fcc62000e41565b905062000fda828262000f8a565b919050565b600065ffffffffffff82169050919050565b62000ffc8162000fdf565b81146200100857600080fd5b50565b6000815190506200101c8162000ff1565b92915050565b60006200102f8262000ec5565b9050919050565b620010418162001022565b81146200104d57600080fd5b50565b600081519050620010618162001036565b92915050565b6000620010748262000ec5565b9050919050565b620010868162001067565b81146200109257600080fd5b50565b600081519050620010a6816200107b565b92915050565b6000819050919050565b620010c181620010ac565b8114620010cd57600080fd5b50565b600081519050620010e181620010b6565b92915050565b6000610120828403121562001101576200110062000f45565b5b6200110e61012062000fc0565b9050600062001120848285016200100b565b6000830152506020620011368482850162001050565b60208301525060406200114c8482850162000e8e565b6040830152506060620011628482850162001095565b6060830152506080620011788482850162000e8e565b60808301525060a06200118e848285016200100b565b60a08301525060c0620011a484828501620010d0565b60c08301525060e0620011ba8482850162000e8e565b60e083015250610100620011d1848285016200100b565b6101008301525092915050565b60008060008060008060006101e0888a03121562001201576200120062000e4b565b5b6000620012118a828b0162000e8e565b9750506020620012248a828b0162000ef3565b9650506040620012378a828b0162000ef3565b95505060606200124a8a828b0162000ef3565b94505060806200125d8a828b0162000f2e565b93505060a0620012708a828b0162000f2e565b92505060c0620012838a828b01620010e7565b91505092959891949750929550565b600082825260208201905092915050565b7f70726963652074696d656f7574207a65726f0000000000000000000000000000600082015250565b6000620012db60128362001292565b9150620012e882620012a3565b602082019050919050565b600060208201905081810360008301526200130e81620012cc565b9050919050565b7f6d697373696e6720636861696e6c696e6b206665656400000000000000000000600082015250565b60006200134d60168362001292565b91506200135a8262001315565b602082019050919050565b6000602082019050818103600083015262001380816200133e565b9050919050565b7f6f7261636c65206572726f72206f7574206f662072616e676500000000000000600082015250565b6000620013bf60198362001292565b9150620013cc8262001387565b602082019050919050565b60006020820190508181036000830152620013f281620013b0565b9050919050565b7f6d697373696e6720657263323000000000000000000000000000000000000000600082015250565b600062001431600d8362001292565b91506200143e82620013f9565b602082019050919050565b60006020820190508181036000830152620014648162001422565b9050919050565b7f696e76616c6964206d617820747261646520766f6c756d650000000000000000600082015250565b6000620014a360188362001292565b9150620014b0826200146b565b602082019050919050565b60006020820190508181036000830152620014d68162001494565b9050919050565b7f6f7261636c6554696d656f7574207a65726f0000000000000000000000000000600082015250565b60006200151560128362001292565b91506200152282620014dd565b602082019050919050565b60006020820190508181036000830152620015488162001506565b9050919050565b600060ff82169050919050565b62001567816200154f565b81146200157357600080fd5b50565b60008151905062001587816200155c565b92915050565b600060208284031215620015a657620015a562000e4b565b5b6000620015b68482850162001576565b91505092915050565b7f7461726765744e616d65206d697373696e670000000000000000000000000000600082015250565b6000620015f760128362001292565b91506200160482620015bf565b602082019050919050565b600060208201905081810360008301526200162a81620015e8565b9050919050565b7f64656c6179556e74696c44656661756c74207a65726f00000000000000000000600082015250565b60006200166960168362001292565b9150620016768262001631565b602082019050919050565b600060208201905081810360008301526200169c816200165a565b9050919050565b7f64656c6179556e74696c44656661756c7420746f6f206c6f6e67000000000000600082015250565b6000620016db601a8362001292565b9150620016e882620016a3565b602082019050919050565b600060208201905081810360008301526200170e81620016cc565b9050919050565b7f4e487b7100000000000000000000000000000000000000000000000000000000600052601160045260246000fd5b6000620017518262000e50565b91506200175e8362000e50565b9250828203905077ffffffffffffffffffffffffffffffffffffffffffffffff81111562001791576200179062001715565b5b92915050565b6000620017a48262000e50565b9150620017b18362000e50565b9250828201905077ffffffffffffffffffffffffffffffffffffffffffffffff811115620017e457620017e362001715565b5b92915050565b7f726576656e7565486964696e67206f7574206f662072616e6765000000000000600082015250565b600062001822601a8362001292565b91506200182f82620017ea565b602082019050919050565b60006020820190508181036000830152620018558162001813565b9050919050565b60006020828403121562001875576200187462000e4b565b5b6000620018858482850162000ef3565b91505092915050565b620018998162000ec5565b82525050565b6000604082019050620018b660008301856200188e565b620018c560208301846200188e565b9392505050565b6000819050919050565b620018e181620018cc565b8114620018ed57600080fd5b50565b6000815190506200190181620018d6565b92915050565b60008160020b9050919050565b6200191f8162001907565b81146200192b57600080fd5b50565b6000815190506200193f8162001914565b92915050565b60008060008060008060c0878903121562001965576200196462000e4b565b5b60006200197589828a01620018f0565b96505060206200198889828a01620018f0565b95505060406200199b89828a016200192e565b9450506060620019ae89828a016200192e565b9350506080620019c189828a016200192e565b92505060a0620019d489828a016200192e565b9150509295509295509295565b60008060408385031215620019fb57620019fa62000e4b565b5b600062001a0b8582860162000e8e565b925050602062001a1e8582860162000e8e565b9150509250929050565b62001a3381620018cc565b82525050565b62001a448162001907565b82525050565b6000819050919050565b600062001a7562001a6f62001a698462000ea5565b62001a4a565b62000ea5565b9050919050565b600062001a898262001a54565b9050919050565b600062001a9d8262001a7c565b9050919050565b62001aaf8162001a90565b82525050565b600060a08201905062001acc600083018862001a28565b62001adb602083018762001a28565b62001aea604083018662001a39565b62001af9606083018562001a39565b62001b08608083018462001aa4565b9695505050505050565b60006fffffffffffffffffffffffffffffffff82169050919050565b62001b398162001b12565b811462001b4557600080fd5b50565b60008151905062001b598162001b2e565b92915050565b60006020828403121562001b785762001b7762000e4b565b5b600062001b888482850162001b48565b91505092915050565b7f4e487b7100000000000000000000000000000000000000000000000000000000600052601260045260246000fd5b600062001bcd82620018cc565b915062001bda83620018cc565b92508262001bed5762001bec62001b91565b5b828204905092915050565b600062001c0582620018cc565b915062001c1283620018cc565b925082820262001c2281620018cc565b9150828204841483151762001c3c5762001c3b62001715565b5b5092915050565b7f4e487b7100000000000000000000000000000000000000000000000000000000600052602160045260246000fd5b600062001c7f82620018cc565b915062001c8c83620018cc565b925082820390508181111562001ca75762001ca662001715565b5b92915050565b600062001cba82620018cc565b915062001cc783620018cc565b92508262001cda5762001cd962001b91565b5b828206905092915050565b600062001cf282620018cc565b91507fffffffffffffffffffffffffffffffffffffffffffffffffffffffffffffffff820362001d275762001d2662001715565b5b600182019050919050565b60805160a05160c05160e05161010051610120516101405161016051610180516101a0516101c0516101e051612f7c62001e1160003960008181610a25015281816113e2015261148b015260008181610f67015261187a015260008181610f91015261181d015260006119ab0152600081816113a20152611c3e01526000818161070a015281816107550152818161078801526108bc015260008181610b450152610fb501526000610f4301526000610be101526000818161092c01526109ef0152600081816109550152610a4901526000610bb70152612f7c6000f3fe608060405234801561001057600080fd5b50600436106101fb5760003560e01c80639ec072721161011a578063c55f29d1116100ad578063d9e8e6701161007c578063d9e8e67014610548578063ddc0c7c814610566578063e6a1505314610584578063f8ac93e8146105a2578063fdfd5917146105ac576101fb565b8063c55f29d1146104d0578063c59b3d63146104ee578063cde5b5ee1461050c578063d10b5a5b1461052a576101fb565b8063abfeece5116100e9578063abfeece514610458578063ae4e187514610476578063ae853faf14610494578063b94d8739146104b2576101fb565b80639ec07272146103e1578063a035b1fe146103ff578063a7fa0faf1461041e578063ab4b3de01461043c576101fb565b806374b629541161019257806392d0d1531161016157806392d0d1531461036957806395acc4ae1461038757806396f80ae9146103a55780639808797c146103c3576101fb565b806374b62954146102ef578063785e9e861461030d5780637d1ea1371461032b5780637dbdf1f51461034b576101fb565b8063372500ab116101ce578063372500ab146102795780633765c59c146102835780633cb5d379146102a15780635580f72a146102bf576101fb565b8063200d2ed214610200578063271181ec1461021e5780632bcfaa801461023d5780632dc866241461025b575b600080fd5b6102086105ca565b60405161021591906121bc565b60405180910390f35b610226610635565b60405161023492919061220a565b60405180910390f35b6102456108ba565b6040516102529190612254565b60405180910390f35b6102636108de565b6040516102709190612288565b60405180910390f35b610281610902565b005b61028b610904565b6040516102989190612322565b60405180910390f35b6102a961092a565b6040516102b69190612359565b60405180910390f35b6102d960048036038101906102d491906123b7565b61094e565b6040516102e691906123e4565b60405180910390f35b6102f7610a23565b60405161030491906123e4565b60405180910390f35b610315610a47565b6040516103229190612420565b60405180910390f35b610333610a6b565b6040516103429392919061243b565b60405180910390f35b610353610bb5565b6040516103609190612493565b60405180910390f35b610371610bd9565b60405161037e91906124c7565b60405180910390f35b61038f610bdf565b60405161039c91906123e4565b60405180910390f35b6103ad610c03565b6040516103ba9190612254565b60405180910390f35b6103cb610c1b565b6040516103d89190612503565b60405180910390f35b6103e9610c41565b6040516103f691906123e4565b60405180910390f35b610407610c6b565b60405161041592919061220a565b60405180910390f35b610426610d92565b60405161043391906123e4565b60405180910390f35b6104566004803603810190610451919061254a565b610dc4565b005b610460610f41565b60405161046d9190612254565b60405180910390f35b61047e610f65565b60405161048b91906123e4565b60405180910390f35b61049c610f89565b6040516104a991906124c7565b60405180910390f35b6104ba610f8f565b6040516104c791906123e4565b60405180910390f35b6104d8610fb3565b6040516104e591906123e4565b60405180910390f35b6104f6610fd7565b60405161050391906125a5565b60405180910390f35b610514610fe0565b60405161052191906123e4565b60405180910390f35b61053261100a565b60405161053f91906125e1565b60405180910390f35b610550611030565b60405161055d91906123e4565b60405180910390f35b61056e611378565b60405161057b91906123e4565b60405180910390f35b61058c6113a0565b6040516105999190612254565b60405180910390f35b6105aa6113c4565b005b6105b46119a9565b6040516105c19190612615565b60405180910390f35b600065ffffffffffff8016600260009054906101000a900465ffffffffffff1665ffffffffffff16036106005760009050610632565b42600260009054906101000a900465ffffffffffff1665ffffffffffff16111561062d5760019050610632565b600290505b90565b6000803073ffffffffffffffffffffffffffffffffffffffff16637d1ea1376040518163ffffffff1660e01b8152600401606060405180830381865afa9250505080156106a057506040513d601f19601f8201168201806040525081019061069d919061265c565b60015b610866573d80600081146106d0576040519150601f19603f3d011682016040523d82523d6000602084013e6106d5565b606091505b5060008151036106e457600080fd5b6000600160189054906101000a900465ffffffffffff164261070691906126de565b90507f000000000000000000000000000000000000000000000000000000000000000065ffffffffffff168165ffffffffffff161061074d576000809350935050506108b6565b60006107b4827f000000000000000000000000000000000000000000000000000000000000000061077e91906126de565b65ffffffffffff167f000000000000000000000000000000000000000000000000000000000000000065ffffffffffff166119f9565b90506108078160008054906101000a900477ffffffffffffffffffffffffffffffffffffffffffffffff1677ffffffffffffffffffffffffffffffffffffffffffffffff166119cd90919063ffffffff16565b945061085c81600160009054906101000a900477ffffffffffffffffffffffffffffffffffffffffffffffff1677ffffffffffffffffffffffffffffffffffffffffffffffff166119cd90919063ffffffff16565b9350505050610870565b8294508193505050505b8077ffffffffffffffffffffffffffffffffffffffffffffffff168277ffffffffffffffffffffffffffffffffffffffffffffffff1611156108b5576108b4612718565b5b5b9091565b7f000000000000000000000000000000000000000000000000000000000000000081565b6000600260009054906101000a900465ffffffffffff1665ffffffffffff16905090565b565b600360009054906101000a900473ffffffffffffffffffffffffffffffffffffffff1681565b7f000000000000000000000000000000000000000000000000000000000000000081565b6000610a1c7f000000000000000000000000000000000000000000000000000000000000000073ffffffffffffffffffffffffffffffffffffffff166370a08231846040518263ffffffff1660e01b81526004016109ac9190612756565b602060405180830381865afa1580156109c9573d6000803e3d6000fd5b505050506040513d601f19601f820116820180604052508101906109ed9190612786565b7f0000000000000000000000000000000000000000000000000000000000000000610a17906127c0565b611a28565b9050919050565b7f000000000000000000000000000000000000000000000000000000000000000081565b7f000000000000000000000000000000000000000000000000000000000000000081565b6000806000600660009054906101000a900473ffffffffffffffffffffffffffffffffffffffff1673ffffffffffffffffffffffffffffffffffffffff16630e802db66040518163ffffffff1660e01b81526004016040805180830381865afa158015610adc573d6000803e3d6000fd5b505050506040513d601f19601f82011682018060405250810190610b009190612808565b9050809150506000610b3c610b13611a3e565b8377ffffffffffffffffffffffffffffffffffffffffffffffff166119cd90919063ffffffff16565b90506000610b907f000000000000000000000000000000000000000000000000000000000000000060028477ffffffffffffffffffffffffffffffffffffffffffffffff16611af89092919063ffffffff16565b90508082610b9e9190612848565b94508082610bac9190612894565b93505050909192565b7f000000000000000000000000000000000000000000000000000000000000000081565b60095481565b7f000000000000000000000000000000000000000000000000000000000000000081565b600160189054906101000a900465ffffffffffff1681565b600460009054906101000a900473ffffffffffffffffffffffffffffffffffffffff1681565b600160009054906101000a900477ffffffffffffffffffffffffffffffffffffffffffffffff1681565b6000803073ffffffffffffffffffffffffffffffffffffffff16637d1ea1376040518163ffffffff1660e01b8152600401606060405180830381865afa925050508015610cd657506040513d601f19601f82011682018060405250810190610cd3919061265c565b60015b610d3f573d8060008114610d06576040519150601f19603f3d011682016040523d82523d6000602084013e610d0b565b606091505b506000815103610d1a57600080fd5b600077ffffffffffffffffffffffffffffffffffffffffffffffff9250925050610d8e565b8177ffffffffffffffffffffffffffffffffffffffffffffffff168377ffffffffffffffffffffffffffffffffffffffffffffffff161115610d8457610d83612718565b5b8282945094505050505b9091565b60006009546301e13380600854610da9919061290f565b6001610db59190612940565b610dbf9190612aa7565b905090565b600080600660009054906101000a900473ffffffffffffffffffffffffffffffffffffffff1673ffffffffffffffffffffffffffffffffffffffff1663460165063386866040518463ffffffff1660e01b8152600401610e2693929190612af2565b6080604051808303816000875af1158015610e45573d6000803e3d6000fd5b505050506040513d601f19601f82011682018060405250810190610e699190612b3e565b93505092505081600560009054906101000a900473ffffffffffffffffffffffffffffffffffffffff1673ffffffffffffffffffffffffffffffffffffffff167ffc30cddea38e2bf4d6ea7d3f9ed3b6ad7f176419f4963bd81318067a4aee73fe60405160405180910390a380600560009054906101000a900473ffffffffffffffffffffffffffffffffffffffff1673ffffffffffffffffffffffffffffffffffffffff167ffc30cddea38e2bf4d6ea7d3f9ed3b6ad7f176419f4963bd81318067a4aee73fe60405160405180910390a350505050565b7f000000000000000000000000000000000000000000000000000000000000000081565b7f000000000000000000000000000000000000000000000000000000000000000081565b60085481565b7f000000000000000000000000000000000000000000000000000000000000000081565b7f000000000000000000000000000000000000000000000000000000000000000081565b60006001905090565b600260069054906101000a900477ffffffffffffffffffffffffffffffffffffffffffffffff1681565b600560009054906101000a900473ffffffffffffffffffffffffffffffffffffffff1681565b6000806000806000600660009054906101000a900473ffffffffffffffffffffffffffffffffffffffff1673ffffffffffffffffffffffffffffffffffffffff1663d6a51628600460009054906101000a900473ffffffffffffffffffffffffffffffffffffffff1673ffffffffffffffffffffffffffffffffffffffff16630dfe16816040518163ffffffff1660e01b8152600401602060405180830381865afa1580156110e3573d6000803e3d6000fd5b505050506040513d601f19601f820116820180604052508101906111079190612ba5565b600460009054906101000a900473ffffffffffffffffffffffffffffffffffffffff1673ffffffffffffffffffffffffffffffffffffffff1663d21220a76040518163ffffffff1660e01b8152600401602060405180830381865afa158015611174573d6000803e3d6000fd5b505050506040513d601f19601f820116820180604052508101906111989190612ba5565b6040518363ffffffff1660e01b81526004016111b5929190612bd2565b60c060405180830381865afa1580156111d2573d6000803e3d6000fd5b505050506040513d601f19601f820116820180604052508101906111f69190612c34565b955095505050935093506000600660009054906101000a900473ffffffffffffffffffffffffffffffffffffffff1673ffffffffffffffffffffffffffffffffffffffff16630e802db66040518163ffffffff1660e01b81526004016040805180830381865afa15801561126e573d6000803e3d6000fd5b505050506040513d601f19601f820116820180604052508101906112929190612808565b77ffffffffffffffffffffffffffffffffffffffffffffffff1691505073__$83b3a7390ebb689ea35f0c451f8ef18f23$__6394fa8e6286868686600460009054906101000a900473ffffffffffffffffffffffffffffffffffffffff166040518663ffffffff1660e01b8152600401611310959493929190612cee565b602060405180830381865af415801561132d573d6000803e3d6000fd5b505050506040513d601f19601f820116820180604052508101906113519190612d89565b6fffffffffffffffffffffffffffffffff168161136e919061290f565b9550505050505090565b60008054906101000a900477ffffffffffffffffffffffffffffffffffffffffffffffff1681565b7f000000000000000000000000000000000000000000000000000000000000000081565b60006113ce611a3e565b90506113d8611b67565b156114785761142a7f00000000000000000000000000000000000000000000000000000000000000008277ffffffffffffffffffffffffffffffffffffffffffffffff166119cd90919063ffffffff16565b600260066101000a81548177ffffffffffffffffffffffffffffffffffffffffffffffff021916908377ffffffffffffffffffffffffffffffffffffffffffffffff160217905550506119a7565b60006114826105ca565b905060006114d37f00000000000000000000000000000000000000000000000000000000000000008477ffffffffffffffffffffffffffffffffffffffffffffffff166119cd90919063ffffffff16565b9050600260069054906101000a900477ffffffffffffffffffffffffffffffffffffffffffffffff1677ffffffffffffffffffffffffffffffffffffffffffffffff168377ffffffffffffffffffffffffffffffffffffffffffffffff16101561158f5780600260066101000a81548177ffffffffffffffffffffffffffffffffffffffffffffffff021916908377ffffffffffffffffffffffffffffffffffffffffffffffff16021790555061158a6002611b8e565b61163c565b600260069054906101000a900477ffffffffffffffffffffffffffffffffffffffffffffffff1677ffffffffffffffffffffffffffffffffffffffffffffffff168177ffffffffffffffffffffffffffffffffffffffffffffffff16111561163b5780600260066101000a81548177ffffffffffffffffffffffffffffffffffffffffffffffff021916908377ffffffffffffffffffffffffffffffffffffffffffffffff1602179055505b5b3073ffffffffffffffffffffffffffffffffffffffff16637d1ea1376040518163ffffffff1660e01b8152600401606060405180830381865afa9250505080156116a457506040513d601f19601f820116820180604052508101906116a1919061265c565b60015b6116f8573d80600081146116d4576040519150601f19603f3d011682016040523d82523d6000602084013e6116d9565b606091505b5060008151036116e857600080fd5b6116f26001611b8e565b50611918565b77ffffffffffffffffffffffffffffffffffffffffffffffff80168277ffffffffffffffffffffffffffffffffffffffffffffffff1610156117ef57826000806101000a81548177ffffffffffffffffffffffffffffffffffffffffffffffff021916908377ffffffffffffffffffffffffffffffffffffffffffffffff16021790555081600160006101000a81548177ffffffffffffffffffffffffffffffffffffffffffffffff021916908377ffffffffffffffffffffffffffffffffffffffffffffffff16021790555042600160186101000a81548165ffffffffffff021916908365ffffffffffff16021790555061181b565b60008377ffffffffffffffffffffffffffffffffffffffffffffffff161461181a57611819612718565b5b5b7f000000000000000000000000000000000000000000000000000000000000000077ffffffffffffffffffffffffffffffffffffffffffffffff168177ffffffffffffffffffffffffffffffffffffffffffffffff1610806118d057507f000000000000000000000000000000000000000000000000000000000000000077ffffffffffffffffffffffffffffffffffffffffffffffff168177ffffffffffffffffffffffffffffffffffffffffffffffff16115b806118f5575060008377ffffffffffffffffffffffffffffffffffffffffffffffff16145b15611909576119046001611b8e565b611914565b6119136000611b8e565b5b5050505b60006119226105ca565b905080600281111561193757611936612145565b5b83600281111561194a57611949612145565b5b146119a25780600281111561196257611961612145565b5b83600281111561197557611974612145565b5b7f99cada7141db4d51b602b2e469ec310c78ffbba0eb05bc3e3e633f30672dea0260405160405180910390a35b505050505b565b7f000000000000000000000000000000000000000000000000000000000000000081565b60006119db83836001611af8565b905092915050565b600081836119f19190612848565b905092915050565b6000611a20611a1b670de0b6b3a764000067ffffffffffffffff168585611d59565b611e83565b905092915050565b6000611a3683836000611ee1565b905092915050565b600080600360009054906101000a900473ffffffffffffffffffffffffffffffffffffffff1673ffffffffffffffffffffffffffffffffffffffff166318160ddd6040518163ffffffff1660e01b8152600401602060405180830381865afa158015611aae573d6000803e3d6000fd5b505050506040513d601f19601f82011682018060405250810190611ad29190612786565b90506000600a82611ae3919061290f565b82611aee9190612940565b9050809250505090565b6000611b5e611b598477ffffffffffffffffffffffffffffffffffffffffffffffff168677ffffffffffffffffffffffffffffffffffffffffffffffff16611b409190612db6565b670de0b6b3a764000067ffffffffffffffff1685612005565b611e83565b90509392505050565b600042600260009054906101000a900465ffffffffffff1665ffffffffffff161115905090565b42600260009054906101000a900465ffffffffffff1665ffffffffffff161115611d565760006002811115611bc657611bc5612145565b5b816002811115611bd957611bd8612145565b5b03611c0e5765ffffffffffff600260006101000a81548165ffffffffffff021916908365ffffffffffff160217905550611d55565b60016002811115611c2257611c21612145565b5b816002811115611c3557611c34612145565b5b03611d025760007f000000000000000000000000000000000000000000000000000000000000000065ffffffffffff1642611c709190612940565b905065ffffffffffff80168110611cb15765ffffffffffff600260006101000a81548165ffffffffffff021916908365ffffffffffff160217905550611cfc565b600260009054906101000a900465ffffffffffff1665ffffffffffff16811015611cfb5780600260006101000a81548165ffffffffffff021916908365ffffffffffff1602179055505b5b50611d54565b600280811115611d1557611d14612145565b5b816002811115611d2857611d27612145565b5b03611d535742600260006101000a81548165ffffffffffff021916908365ffffffffffff1602179055505b5b5b5b50565b6000806000611d6886866120e6565b91509150838210611da5576040517ff44398f500000000000000000000000000000000000000000000000000000000815260040160405180910390fd5b60008480611db657611db56128e0565b5b868809905081811115611dca576001830392505b808203915060008560000386169050808681611de957611de86128e0565b5b049550808381611dfc57611dfb6128e0565b5b0492506001818260000381611e1457611e136128e0565b5b04018402830192506000600190508087026002038102905080870260020381029050808702600203810290508087026002038102905080870260020381029050808702600203810290508087026002038102905080870260020381029050808402955050505050509392505050565b60008177ffffffffffffffffffffffffffffffffffffffffffffffff80161015611ed9576040517ff44398f500000000000000000000000000000000000000000000000000000000815260040160405180910390fd5b819050919050565b6000808403611ef35760009050611ffe565b7fffffffffffffffffffffffffffffffffffffffffffffffffffffffffffffffa08360000b13611f5c57600280811115611f3057611f2f612145565b5b826002811115611f4357611f42612145565b5b14611f4f576000611f52565b60015b60ff169050611ffe565b8260000b602813611f99576040517ff44398f500000000000000000000000000000000000000000000000000000000815260040160405180910390fd5b601283611fa69190612df8565b92506000611fb68460000b612124565b600a611fc29190612aa7565b90506000808560000b1215611fe157611fdc868386612005565b611fee565b8186611fed9190612db6565b5b9050611ff981611e83565b925050505b9392505050565b6000808385612014919061290f565b90506000600281111561202a57612029612145565b5b83600281111561203d5761203c612145565b5b0361204b57809150506120df565b6001600281111561205f5761205e612145565b5b83600281111561207257612071612145565b5b036120b65760026001856120869190612e51565b612090919061290f565b848661209c9190612e85565b11156120b15780806120ad90612eb6565b9150505b6120da565b600084866120c49190612e85565b11156120d95780806120d590612eb6565b9150505b5b809150505b9392505050565b60008060006001600003806120fe576120fd6128e0565b5b8486099050838502915081810392508181101561211c576001830392505b509250929050565b6000808212612133578161213e565b8161213d90612efe565b5b9050919050565b7f4e487b7100000000000000000000000000000000000000000000000000000000600052602160045260246000fd5b6003811061218557612184612145565b5b50565b600081905061219682612174565b919050565b60006121a682612188565b9050919050565b6121b68161219b565b82525050565b60006020820190506121d160008301846121ad565b92915050565b600077ffffffffffffffffffffffffffffffffffffffffffffffff82169050919050565b612204816121d7565b82525050565b600060408201905061221f60008301856121fb565b61222c60208301846121fb565b9392505050565b600065ffffffffffff82169050919050565b61224e81612233565b82525050565b60006020820190506122696000830184612245565b92915050565b6000819050919050565b6122828161226f565b82525050565b600060208201905061229d6000830184612279565b92915050565b600073ffffffffffffffffffffffffffffffffffffffff82169050919050565b6000819050919050565b60006122e86122e36122de846122a3565b6122c3565b6122a3565b9050919050565b60006122fa826122cd565b9050919050565b600061230c826122ef565b9050919050565b61231c81612301565b82525050565b60006020820190506123376000830184612313565b92915050565b600060ff82169050919050565b6123538161233d565b82525050565b600060208201905061236e600083018461234a565b92915050565b600080fd5b6000612384826122a3565b9050919050565b61239481612379565b811461239f57600080fd5b50565b6000813590506123b18161238b565b92915050565b6000602082840312156123cd576123cc612374565b5b60006123db848285016123a2565b91505092915050565b60006020820190506123f960008301846121fb565b92915050565b600061240a826122ef565b9050919050565b61241a816123ff565b82525050565b60006020820190506124356000830184612411565b92915050565b600060608201905061245060008301866121fb565b61245d60208301856121fb565b61246a60408301846121fb565b949350505050565b600061247d826122ef565b9050919050565b61248d81612472565b82525050565b60006020820190506124a86000830184612484565b92915050565b6000819050919050565b6124c1816124ae565b82525050565b60006020820190506124dc60008301846124b8565b92915050565b60006124ed826122ef565b9050919050565b6124fd816124e2565b82525050565b600060208201905061251860008301846124f4565b92915050565b6125278161226f565b811461253257600080fd5b50565b6000813590506125448161251e565b92915050565b6000806040838503121561256157612560612374565b5b600061256f85828601612535565b9250506020612580858286016123a2565b9150509250929050565b60008115159050919050565b61259f8161258a565b82525050565b60006020820190506125ba6000830184612596565b92915050565b60006125cb826122ef565b9050919050565b6125db816125c0565b82525050565b60006020820190506125f660008301846125d2565b92915050565b6000819050919050565b61260f816125fc565b82525050565b600060208201905061262a6000830184612606565b92915050565b612639816121d7565b811461264457600080fd5b50565b60008151905061265681612630565b92915050565b60008060006060848603121561267557612674612374565b5b600061268386828701612647565b935050602061269486828701612647565b92505060406126a586828701612647565b9150509250925092565b7f4e487b7100000000000000000000000000000000000000000000000000000000600052601160045260246000fd5b60006126e982612233565b91506126f483612233565b9250828203905065ffffffffffff811115612712576127116126af565b5b92915050565b7f4e487b7100000000000000000000000000000000000000000000000000000000600052600160045260246000fd5b61275081612379565b82525050565b600060208201905061276b6000830184612747565b92915050565b6000815190506127808161251e565b92915050565b60006020828403121561279c5761279b612374565b5b60006127aa84828501612771565b91505092915050565b60008160000b9050919050565b60006127cb826127b3565b91507fffffffffffffffffffffffffffffffffffffffffffffffffffffffffffffff8082036127fd576127fc6126af565b5b816000039050919050565b6000806040838503121561281f5761281e612374565b5b600061282d85828601612647565b925050602061283e85828601612647565b9150509250929050565b6000612853826121d7565b915061285e836121d7565b9250828203905077ffffffffffffffffffffffffffffffffffffffffffffffff81111561288e5761288d6126af565b5b92915050565b600061289f826121d7565b91506128aa836121d7565b9250828201905077ffffffffffffffffffffffffffffffffffffffffffffffff8111156128da576128d96126af565b5b92915050565b7f4e487b7100000000000000000000000000000000000000000000000000000000600052601260045260246000fd5b600061291a8261226f565b91506129258361226f565b925082612935576129346128e0565b5b828204905092915050565b600061294b8261226f565b91506129568361226f565b925082820190508082111561296e5761296d6126af565b5b92915050565b60008160011c9050919050565b6000808291508390505b60018511156129cb578086048111156129a7576129a66126af565b5b60018516156129b65780820291505b80810290506129c485612974565b945061298b565b94509492505050565b6000826129e45760019050612aa0565b816129f25760009050612aa0565b8160018114612a085760028114612a1257612a41565b6001915050612aa0565b60ff841115612a2457612a236126af565b5b8360020a915084821115612a3b57612a3a6126af565b5b50612aa0565b5060208310610133831016604e8410600b8410161715612a765782820a905083811115612a7157612a706126af565b5b612aa0565b612a838484846001612981565b92509050818404811115612a9a57612a996126af565b5b81810290505b9392505050565b6000612ab28261226f565b9150612abd8361226f565b9250612aea7fffffffffffffffffffffffffffffffffffffffffffffffffffffffffffffffff84846129d4565b905092915050565b6000606082019050612b076000830186612747565b612b146020830185612279565b612b216040830184612747565b949350505050565b600081519050612b388161238b565b92915050565b60008060008060808587031215612b5857612b57612374565b5b6000612b6687828801612b29565b9450506020612b7787828801612771565b9350506040612b8887828801612b29565b9250506060612b9987828801612771565b91505092959194509250565b600060208284031215612bbb57612bba612374565b5b6000612bc984828501612b29565b91505092915050565b6000604082019050612be76000830185612747565b612bf46020830184612747565b9392505050565b60008160020b9050919050565b612c1181612bfb565b8114612c1c57600080fd5b50565b600081519050612c2e81612c08565b92915050565b60008060008060008060c08789031215612c5157612c50612374565b5b6000612c5f89828a01612771565b9650506020612c7089828a01612771565b9550506040612c8189828a01612c1f565b9450506060612c9289828a01612c1f565b9350506080612ca389828a01612c1f565b92505060a0612cb489828a01612c1f565b9150509295509295509295565b612cca8161226f565b82525050565b612cd981612bfb565b82525050565b612ce8816124e2565b82525050565b600060a082019050612d036000830188612cc1565b612d106020830187612cc1565b612d1d6040830186612cd0565b612d2a6060830185612cd0565b612d376080830184612cdf565b9695505050505050565b60006fffffffffffffffffffffffffffffffff82169050919050565b612d6681612d41565b8114612d7157600080fd5b50565b600081519050612d8381612d5d565b92915050565b600060208284031215612d9f57612d9e612374565b5b6000612dad84828501612d74565b91505092915050565b6000612dc18261226f565b9150612dcc8361226f565b9250828202612dda8161226f565b91508282048414831517612df157612df06126af565b5b5092915050565b6000612e03826127b3565b9150612e0e836127b3565b925082820190507fffffffffffffffffffffffffffffffffffffffffffffffffffffffffffffff808112607f82131715612e4b57612e4a6126af565b5b92915050565b6000612e5c8261226f565b9150612e678361226f565b9250828203905081811115612e7f57612e7e6126af565b5b92915050565b6000612e908261226f565b9150612e9b8361226f565b925082612eab57612eaa6128e0565b5b828206905092915050565b6000612ec18261226f565b91507fffffffffffffffffffffffffffffffffffffffffffffffffffffffffffffffff8203612ef357612ef26126af565b5b600182019050919050565b6000612f09826124ae565b91507f80000000000000000000000000000000000000000000000000000000000000008203612f3b57612f3a6126af565b5b81600003905091905056fea26469706673582212202f7d34d3bac52888cf7f2b6718ab35b2b78e03ff724bb5becebac3ddb4e4df5564736f6c63430008110033",
  "linkReferences": {
    "contracts/libraries/LiquidityAmountCalculator.sol": {
      "calculateAmounts": [
        {
          "length": 20,
          "start": 2908
        },
        {
          "length": 20,
          "start": 12482
        }
      ]
    }
  },
  "deployedLinkReferences": {
    "contracts/libraries/LiquidityAmountCalculator.sol": {
      "calculateAmounts": [
        {
          "length": 20,
          "start": 4785
        }
      ]
    }
  }
}